{"contracts/LandAgreementRegistry.sol":{"LandAgreementRegistry":{"abi":[{"inputs":[],"stateMutability":"nonpayable","type":"constructor"},{"anonymous":false,"inputs":[{"indexed":true,"internalType":"bytes32","name":"agreementId","type":"bytes32"},{"indexed":true,"internalType":"address","name":"creator","type":"address"},{"indexed":false,"internalType":"string","name":"farmer1UserId","type":"string"},{"indexed":false,"internalType":"string","name":"farmer2UserId","type":"string"},{"indexed":false,"internalType":"uint256","name":"createdAt","type":"uint256"}],"name":"AgreementCreated","type":"event"},{"anonymous":false,"inputs":[{"indexed":true,"internalType":"bytes32","name":"agreementId","type":"bytes32"},{"indexed":true,"internalType":"address","name":"revokedBy","type":"address"},{"indexed":false,"internalType":"uint256","name":"revokedAt","type":"uint256"}],"name":"AgreementRevoked","type":"event"},{"anonymous":false,"inputs":[{"indexed":true,"internalType":"bytes32","name":"agreementId","type":"bytes32"},{"indexed":true,"internalType":"address","name":"signer","type":"address"},{"indexed":false,"internalType":"string","name":"signerRole","type":"string"},{"indexed":false,"internalType":"enum LandAgreementRegistry.AgreementStatus","name":"newStatus","type":"uint8"}],"name":"AgreementSigned","type":"event"},{"anonymous":false,"inputs":[{"indexed":true,"internalType":"bytes32","name":"agreementId","type":"bytes32"},{"indexed":false,"internalType":"string","name":"documentCid","type":"string"},{"indexed":false,"internalType":"string","name":"metadataCid","type":"string"}],"name":"DocumentUpdated","type":"event"},{"inputs":[{"internalType":"string","name":"farmer1UserId","type":"string"},{"internalType":"string","name":"farmer1Name","type":"string"},{"internalType":"address","name":"farmer1Address","type":"address"},{"internalType":"string","name":"farmer1Survey","type":"string"},{"internalType":"uint32","name":"farmer1Centiacres","type":"uint32"},{"internalType":"uint8","name":"farmer1SharePercent","type":"uint8"},{"internalType":"string","name":"farmer2UserId","type":"string"},{"internalType":"string","name":"farmer2Name","type":"string"},{"internalType":"address","name":"farmer2Address","type":"address"},{"internalType":"string","name":"farmer2Survey","type":"string"},{"internalType":"uint32","name":"farmer2Centiacres","type":"uint32"},{"internalType":"uint8","name":"farmer2SharePercent","type":"uint8"},{"internalType":"uint64","name":"startTs","type":"uint64"},{"internalType":"uint64","name":"endTs","type":"uint64"},{"internalType":"string","name":"documentCid","type":"string"}],"name":"createAgreement","outputs":[{"internalType":"bytes32","name":"agreementId","type":"bytes32"}],"stateMutability":"nonpayable","type":"function"},{"inputs":[{"internalType":"bytes32","name":"agreementId","type":"bytes32"}],"name":"getAgreement","outputs":[{"internalType":"bytes32","name":"id","type":"bytes32"},{"internalType":"address","name":"creator","type":"address"},{"internalType":"string","name":"farmer1Name","type":"string"},{"internalType":"string","name":"farmer1UserId","type":"string"},{"internalType":"uint32","name":"farmer1Centiacres","type":"uint32"},{"internalType":"uint8","name":"farmer1Share","type":"uint8"},{"internalType":"string","name":"farmer2Name","type":"string"},{"internalType":"string","name":"farmer2UserId","type":"string"},{"internalType":"uint32","name":"farmer2Centiacres","type":"uint32"},{"internalType":"uint8","name":"farmer2Share","type":"uint8"},{"internalType":"string","name":"documentCid","type":"string"},{"internalType":"uint8","name":"status","type":"uint8"},{"internalType":"uint256","name":"signatureCount","type":"uint256"},{"internalType":"uint256","name":"createdAt","type":"uint256"}],"stateMutability":"view","type":"function"},{"inputs":[{"internalType":"bytes32","name":"agreementId","type":"bytes32"}],"name":"getAgreementStatus","outputs":[{"internalType":"enum LandAgreementRegistry.AgreementStatus","name":"","type":"uint8"}],"stateMutability":"view","type":"function"},{"inputs":[{"internalType":"address","name":"user","type":"address"}],"name":"getUserAgreements","outputs":[{"internalType":"bytes32[]","name":"","type":"bytes32[]"}],"stateMutability":"view","type":"function"},{"inputs":[{"internalType":"bytes32","name":"agreementId","type":"bytes32"},{"internalType":"address","name":"user","type":"address"}],"name":"hasSignedAgreement","outputs":[{"internalType":"bool","name":"","type":"bool"}],"stateMutability":"view","type":"function"},{"inputs":[],"name":"owner","outputs":[{"internalType":"address","name":"","type":"address"}],"stateMutability":"view","type":"function"},{"inputs":[{"internalType":"bytes32","name":"agreementId","type":"bytes32"}],"name":"revokeAgreement","outputs":[],"stateMutability":"nonpayable","type":"function"},{"inputs":[{"internalType":"bytes32","name":"agreementId","type":"bytes32"},{"internalType":"string","name":"signerName","type":"string"}],"name":"signAgreement","outputs":[],"stateMutability":"nonpayable","type":"function"},{"inputs":[],"name":"totalAgreements","outputs":[{"internalType":"uint256","name":"","type":"uint256"}],"stateMutability":"view","type":"function"},{"inputs":[{"internalType":"bytes32","name":"agreementId","type":"bytes32"},{"internalType":"string","name":"documentCid","type":"string"},{"internalType":"string","name":"metadataCid","type":"string"}],"name":"updateDocument","outputs":[],"stateMutability":"nonpayable","type":"function"},{"inputs":[{"internalType":"bytes32","name":"agreementId","type":"bytes32"},{"internalType":"string","name":"cid","type":"string"}],"name":"verifyDocumentCid","outputs":[{"internalType":"bool","name":"","type":"bool"}],"stateMutability":"view","type":"function"}],"evm":{"bytecode":{"linkReferences":{},"object":"60a0806040523461003f5733608052612062908161004582396080518181816102660152818161156b015281816116c10152818161181901526118a50152f35b600080fdfe610280604052600436101561001357600080fd5b60003560e01c80632a61895914611b51578063335195a614611b3357806344c73dfc14611abe578063702f3dae1461185257806379d0b1fc146116f05780638da5cb5b146116ab578063adb9cae6146115f8578063cbc3a796146115a3578063d8b498c314611123578063f42eb76514610f585763f5f708081461009657600080fd5b34610f53576101e0366003190112610f53576004356001600160401b038111610f53576100c7903690600401611ba9565b61024052610200526024356001600160401b038111610f53576100ee903690600401611ba9565b610100526044356101c08190526001600160a01b0381169003610f53576064356001600160401b038111610f535761012a903690600401611ba9565b909160843563ffffffff81168103610f535760a4359060ff82168203610f535760c4356001600160401b038111610f5357610169903690600401611ba9565b610220526102605260e4356001600160401b038111610f5357610190903690600401611ba9565b610104356101e081905290969194906001600160a01b0381169003610f53576001600160401b036101243511610f53576101d03661012435600401611ba9565b6101605261012052610144356101405263ffffffff61014051166101405103610f5357610164356101a05260ff6101a051166101a05103610f5357610184356101808190526001600160401b0381169003610f53576101a4356001600160401b0381169003610f53576001600160401b036101c43511610f535761025a366101c435600401611ba9565b60e05260a052610294337f00000000000000000000000000000000000000000000000000000000000000006001600160a01b031614611eb0565b60ff6101a0511660ff85160160ff81116109515760ff6064911603610f155763ffffffff8316151580610f03575b15610ecb57610180516001600160401b036101a435811691161015610e95576101e0516101c0516001600160a01b03908116911614610e5457604051602081019061024051610200518337610345604082610240518101602081016000815261022051906102605190376102205101426020820152036020810184520182611e47565b51902060c05260c0516000526000602052601360406000200154610e165760c051600081815260208190526040902060808190529081556001810180546001600160a01b031990811633179091556101c051600290920180549091166001600160a01b0392909216919091179055610100516001600160401b03106109ed576103e5610100516103da60036080510154611d26565b600360805101611eed565b600090601f6101005111600114610d99576104129160009161010051610d8e575b50506101005190611f43565b600360805101555b610240516001600160401b03106109ed5761044c6102405161044160046080510154611d26565b600460805101611eed565b6000601f6102405111600114610cfa57916104a063ffffffff9261048460ff969560009061024051610cec575b506102405190611f43565b600460805101555b6040519761049989611df6565b3691611e6a565b86526040516104ae81611e2c565b600081526020870152166040850152166060830152815180519093906001600160401b0381116109ed576104f6816104eb60056080510154611d26565b600560805101611eed565b6020601f8211600114610c7957819061051b93949596600092610a03575b5050611f43565b600560805101555b602083015180519093906001600160401b0381116109ed576105598161054e60066080510154611d26565b600660805101611eed565b6020601f8211600114610c0657819061057d93949596600092610a03575050611f43565b600660805101555b6007608051019063ffffffff604082015116825491606060ff60201b91015160201b169164ffffffffff19161717905560086080510160018060a01b036101e0511660018060a01b031982541617905560018060401b0381116109ed57610600816105f560096080510154611d26565b600960805101611eed565b600091601f8211600114610b95576106219260009183610b8a575050611f43565b600960805101555b610220516001600160401b03106109ed5761065b61022051610650600a6080510154611d26565b600a60805101611eed565b6000601f6102205111600114610b08576106869060009061022051610afa575b506102205190611f43565b600a60805101555b60405161069a81611df6565b6106ab366101605161012051611e6a565b81526040516106b981611e2c565b6000815260208201526101405163ffffffff1660408201526101a05160ff16606082015280518051906001600160401b0382116109ed5761070e82610703600b6080510154611d26565b600b60805101611eed565b602090601f8311600114610a8457610730929160009183610a03575050611f43565b600b60805101555b60208101518051906001600160401b0382116109ed5761076c82610761600c6080510154611d26565b600c60805101611eed565b602090601f8311600114610a0e5761078e929160009183610a03575050611f43565b600c60805101555b608051604082810151600d8301805460609095015160ff60201b60209190911b1663ffffffff90921664ffffffffff199095169490941717909255600e01805461018051600160401b600160801b036101a43590941b939093166001600160401b039384166001600160801b03199092169190911717905560e051116109ed5761083660e05161082b600f6080510154611d26565b600f60805101611eed565b6000601f60e051116001146109745761085e9060009060e051610967575b5060e05190611f43565b600f60805101555b601160805101600160ff198254161790554260136080510155426014608051015560018060a01b036101c0511660005260016020526108ab60c0516040600020611fc3565b60018060a01b036101e0511660005260016020526108cf60c0516040600020611fc3565b600254600019811461095157600101600255604051606081526109146108ff606083016102405161020051611f56565b82810360208401526102205161026051611f56565b4260408301527fa3c2d4ef9bfeb4d857574f1a496138ddccba145c6b44880725e3ff94606dfb5433928060c051930390a3602060405160c0518152f35b634e487b7160e01b600052601160045260246000fd5b905060a051013538610854565b601f1960e0511690600f6080510160005260206000209160005b8181106109d3575060e051116109b5575b5050600160e051811b01600f6080510155610866565b60001960f860e05160031b161c199060a0510135169055388061099f565b91926020600181928660a05101358155019401920161098e565b634e487b7160e01b600052604160045260246000fd5b015190503880610514565b9190600c608051016000526020600020906000935b601f1984168510610a69576001945083601f19811610610a50575b505050811b01600c6080510155610796565b015160001960f88460031b161c19169055388080610a3e565b81810151835560209485019460019093019290910190610a23565b9190600b608051016000526020600020906000935b601f1984168510610adf576001945083601f19811610610ac6575b505050811b01600b6080510155610738565b015160001960f88460031b161c19169055388080610ab4565b81810151835560209485019460019093019290910190610a99565b90506102605101353861067b565b600a6080510160005260206000209060005b61022051601f19168110610b6f575061022051601f19811610610b4f575b5050600161022051811b01600a608051015561068e565b60001960f86102205160031b161c19906102605101351690553880610b38565b90916020600181928561026051013581550193019101610b1a565b013590503880610514565b60096080510160005260206000209060005b601f1984168110610bee575060019383601f19811610610bd4575b505050811b0160096080510155610629565b0135600019600384901b60f8161c19169055388080610bc2565b84820135835560209485019460019093019201610ba7565b60066080510160005260206000209060005b601f1984168110610c61575060019394959683601f19811610610c48575b505050811b0160066080510155610585565b015160001960f88460031b161c19169055388080610c36565b9091602060018192858b015181550193019101610c18565b60056080510160005260206000209060005b601f1984168110610cd4575060019394959683601f19811610610cbb575b505050811b0160056080510155610523565b015160001960f88460031b161c19169055388080610ca9565b9091602060018192858b015181550193019101610c8b565b905061020051013538610479565b60046080510160005260206000209060005b61024051601f19168110610d73575063ffffffff9260ff9594926104a09261024051601f19610240511610610d53575b5050600161024051811b016004608051015561048c565b60001960f86102405160031b161c19906102005101351690553880610d3c565b90916020600181928561020051013581550193019101610d0c565b013590503880610406565b60036080510160005260206000209160005b61010051601f19168110610dfe575061010051601f19811610610de1575b505050600161010051811b016003608051015561041a565b60001960f86101005160031b161c19910135169055388080610dc9565b90926020600181928686013581550194019101610dab565b60405162461bcd60e51b815260206004820152601660248201527520b3b932b2b6b2b73a1024a21031b7b63634b9b4b7b760511b6044820152606490fd5b60405162461bcd60e51b815260206004820152601960248201527811985c9b595c9cc81b5d5cdd08189948191a5999995c995b9d603a1b6044820152606490fd5b60405162461bcd60e51b815260206004820152600e60248201526d125b9d985b1a59081c195c9a5bd960921b6044820152606490fd5b60405162461bcd60e51b815260206004820152601060248201526f04c616e64206d757374206265203e20360841b6044820152606490fd5b5063ffffffff610140511615156102c2565b60405162461bcd60e51b81526020600482015260166024820152755368617265206d7573742073756d20746f203130302560501b6044820152606490fd5b600080fd5b34610f5357602080600319360112610f53576004358060005260008252610f886013604060002001541515611c56565b60005260008152604060002080549060018060a01b036001820154169260078201549063ffffffff92600d8101549360ff60118301541694600586101561110d576012830154936013840154956040519081806003880190610fe991611d60565b03610ff49083611e47565b60405190816110068160048a01611d60565b036110119083611e47565b60405191826110238160098b01611d60565b0361102e9084611e47565b604051938461104081600a8c01611d60565b0361104b9086611e47565b60405180600f819b019061105e91611d60565b03611069908a611e47565b6040519d8e9d8e6101c0928392825289820152604001528d0161108b91611c16565b8c810360608e015261109c91611c16565b9086811660808d0152841c60ff1660a08c01528a810360c08c01526110c091611c16565b89810360e08b01526110d191611c16565b9282166101008901521c60ff166101208701528581036101408701526110f691611c16565b926101608501526101808401526101a08301520390f35b634e487b7160e01b600052602160045260246000fd5b34610f535761113136611bd6565b8260009392935260006020526111506013604060002001541515611c56565b816000526000602052604060002060018060a01b039081806002830154163314918215611592575b50508015611567575b61118a90611f77565b82600052600060205260406000209160ff601184015416600581101561110d57600103611522578160028401541633146000146114fc576040516111cd81611e11565b60078152666661726d65723160c81b6020820152945b60128401549060005b8281106114a7575061120f906040519361120585611df6565b3385523691611e6a565b602083019081526040830187905242606084015290600160401b8110156109ed578060016112469201601287015560128601611c9d565b93909361149157825184546001600160a01b0319169116178355518051906001600160401b0382116109ed5761128c826112836001870154611d26565b60018701611eed565b602090601f831160011461141f576112ae929160009183611414575050611f43565b60018301555b60408101518051906001600160401b0382116109ed576112e4826112db6002870154611d26565b60028701611eed565b602090601f831160011461138b5760606011946113218560008051602061200d833981519152999660ff9996600396600092611380575050611f43565b60028501555b0151910155426014820155600260128201541461136e575b0154169261136661135b60405192604084526040840190611c16565b946020830190611c09565b8033940390a3005b8082018054841916600217905561133f565b015190508d80610514565b906002850160005260206000209160005b601f19851681106113fc575060119460018560ff989560039560609560008051602061200d8339815191529c99601f198116106113e4575b505050811b016002850155611327565b015160001983881b60f8161c191690558c80806113d4565b9192602060018192868501518155019401920161139c565b015190508880610514565b9190600185016000526020600020906000935b601f1984168510611476576001945083601f1981161061145d575b505050811b0160018301556112b4565b015160001960f88460031b161c1916905587808061144d565b81810151835560209485019460019093019290910190611432565b634e487b7160e01b600052600060045260246000fd5b6114b48160128801611c9d565b5054851633146114c6576001016111ec565b60405162461bcd60e51b815260206004820152600e60248201526d105b1c9958591e481cda59db995960921b6044820152606490fd5b60405161150881611e11565b60078152663330b936b2b91960c91b6020820152946111e3565b60405162461bcd60e51b815260206004820152601f60248201527f41677265656d656e74206e6f742070656e64696e67207369676e6174757265006044820152606490fd5b50337f0000000000000000000000000000000000000000000000000000000000000000821614611181565b600891925001541633148186611178565b34610f53576020366003190112610f53576004358060005260006020526115d36013604060002001541515611c56565b6000526000602052602060ff601160406000200154166115f66040518092611c09565bf35b34610f5357602080600319360112610f53576004356001600160a01b03811690819003610f53576000526001906001815260406000209160405191828185549182815201908195600052826000209060005b8181106116985750505083611660910384611e47565b60405192818401908285525180915260408401949160005b8281106116855785870386f35b8351875295810195928101928401611678565b825484529284019291850191850161164a565b34610f53576000366003190112610f53576040517f00000000000000000000000000000000000000000000000000000000000000006001600160a01b03168152602090f35b34610f5357602080600319360112610f535760043580600052600082526117206013604060002001541515611c56565b8060005260008252611756604060002060018060a01b03806002830154163314918215611841575b508115611815575b50611f77565b8060005260008252604060002060118101805460ff8116600581101561110d576002811490811561180a575b50156117c55760049060ff19161790556014429101557fb3e4d3f78538d12c2af01cd812d88bc3d1f80e420bbf1468ad9c451784b6e1d7604051924284523393a3005b60405162461bcd60e51b815260048101869052601f60248201527f43616e6e6f74207265766f6b6520696e2063757272656e7420737461747573006044820152606490fd5b600191501486611782565b90507f000000000000000000000000000000000000000000000000000000000000000016331484611750565b819250600801541633149085611748565b34610f53576060366003190112610f53576001600160401b03600435602435828111610f5357611886903690600401611ba9565b604435848111610f535761189e903690600401611ba9565b906118d3337f00000000000000000000000000000000000000000000000000000000000000006001600160a01b031614611eb0565b84600052602095600087526118f16013604060002001541515611c56565b8560005260008752604060002090600f82018186116109ed5761191e866119188354611d26565b83611eed565b600086601f8111600114611a57578061193f92600091611a4c575b50611f43565b90555b601082019084116109ed5761195b846119188354611d26565b6000601f85116001146119d05791600080516020611fed8339815191529798939161199386806119c098966000916119c55750611f43565b90555b6014429101556119b3604051968796604088526040880191611f56565b9285840390860152611f56565b0390a2005b90508501358d611939565b601f1985169082600052896000209160005b818110611a35575091600080516020611fed833981519152999a959391876119c098969410611a1b575b5050600184811b019055611996565b840135600019600387901b60f8161c191690558a80611a0c565b91928b60018192868a0135815501940192016119e2565b90508901358c611939565b50601f1987169082600052878b6000209260005b8d8c838310611aa65750505010611a8c575b5050600186811b019055611942565b880135600019600389901b60f8161c191690558980611a7d565b8501358655600190950194938401938b935001611a6b565b34610f53576020611b24611ad136611bd6565b92918060005260008552611aee6013604060002001541515611c56565b60005260008452611b0f611b16600f60406000200160405192838092611d60565b0382611e47565b848151910120923691611e6a565b82815191012014604051908152f35b34610f53576000366003190112610f53576020600254604051908152f35b34610f53576040366003190112610f53576024356004356001600160a01b0382168203610f535760209181611b9f9260005260008452611b9a6013604060002001541515611c56565b611ccf565b6040519015158152f35b9181601f84011215610f53578235916001600160401b038311610f535760208381860195010111610f5357565b906040600319830112610f535760043591602435906001600160401b038211610f5357611c0591600401611ba9565b9091565b90600582101561110d5752565b919082519283825260005b848110611c42575050826000602080949584010152601f8019910116010190565b602081830181015184830182015201611c21565b15611c5d57565b60405162461bcd60e51b81526020600482015260186024820152771059dc99595b595b9d08191bd95cc81b9bdd08195e1a5cdd60421b6044820152606490fd5b8054821015611cb95760005260206000209060021b0190600090565b634e487b7160e01b600052603260045260246000fd5b60005260006020526040600020906012600092018054925b838110611cf75750505050600090565b611d018183611c9d565b50546001600160a01b03848116911614611d1d57600101611ce7565b50505050600190565b90600182811c92168015611d56575b6020831014611d4057565b634e487b7160e01b600052602260045260246000fd5b91607f1691611d35565b805460009392611d6f82611d26565b91828252602093600191600181169081600014611dd75750600114611d96575b5050505050565b90939495506000929192528360002092846000945b838610611dc357505050500101903880808080611d8f565b805485870183015294019385908201611dab565b60ff19168685015250505090151560051b010191503880808080611d8f565b608081019081106001600160401b038211176109ed57604052565b604081019081106001600160401b038211176109ed57604052565b602081019081106001600160401b038211176109ed57604052565b601f909101601f19168101906001600160401b038211908210176109ed57604052565b9192916001600160401b0382116109ed5760405191611e93601f8201601f191660200184611e47565b829481845281830111610f53578281602093846000960137010152565b15611eb757565b60405162461bcd60e51b815260206004820152600e60248201526d139bdd08185d5d1a1bdc9a5e995960921b6044820152606490fd5b90601f8111611efb57505050565b6000916000526020600020906020601f850160051c83019410611f39575b601f0160051c01915b828110611f2e57505050565b818155600101611f22565b9092508290611f19565b8160011b916000199060031b1c19161790565b908060209392818452848401376000828201840152601f01601f1916010190565b15611f7e57565b60405162461bcd60e51b815260206004820152601d60248201527f4e6f74206120706172747920746f20746869732061677265656d656e740000006044820152606490fd5b805490600160401b8210156109ed5760018201808255821015611cb9576000526020600020015556fe222c31ed55842bcde3c39b49875bae306af952dc94d514593ac61a4ba7ce0e6a58554c3c761c10bedf59a12935e8a806a07a07f9157f8a7a59169f215e22dec3a26469706673582212200ce7441c46ba1dcc50e9f96e01c061f9571528333608aa7984594868f6b4b90264736f6c63430008180033","opcodes":"PUSH1 0xA0 DUP1 PUSH1 0x40 MSTORE CALLVALUE PUSH2 0x3F JUMPI CALLER PUSH1 0x80 MSTORE PUSH2 0x2062 SWAP1 DUP2 PUSH2 0x45 DUP3 CODECOPY PUSH1 0x80 MLOAD DUP2 DUP2 DUP2 PUSH2 0x266 ADD MSTORE DUP2 DUP2 PUSH2 0x156B ADD MSTORE DUP2 DUP2 PUSH2 0x16C1 ADD MSTORE DUP2 DUP2 PUSH2 0x1819 ADD MSTORE PUSH2 0x18A5 ADD MSTORE RETURN JUMPDEST PUSH1 0x0 DUP1 REVERT INVALID PUSH2 0x280 PUSH1 0x40 MSTORE PUSH1 0x4 CALLDATASIZE LT ISZERO PUSH2 0x13 JUMPI PUSH1 0x0 DUP1 REVERT JUMPDEST PUSH1 0x0 CALLDATALOAD PUSH1 0xE0 SHR DUP1 PUSH4 0x2A618959 EQ PUSH2 0x1B51 JUMPI DUP1 PUSH4 0x335195A6 EQ PUSH2 0x1B33 JUMPI DUP1 PUSH4 0x44C73DFC EQ PUSH2 0x1ABE JUMPI DUP1 PUSH4 0x702F3DAE EQ PUSH2 0x1852 JUMPI DUP1 PUSH4 0x79D0B1FC EQ PUSH2 0x16F0 JUMPI DUP1 PUSH4 0x8DA5CB5B EQ PUSH2 0x16AB JUMPI DUP1 PUSH4 0xADB9CAE6 EQ PUSH2 0x15F8 JUMPI DUP1 PUSH4 0xCBC3A796 EQ PUSH2 0x15A3 JUMPI DUP1 PUSH4 0xD8B498C3 EQ PUSH2 0x1123 JUMPI DUP1 PUSH4 0xF42EB765 EQ PUSH2 0xF58 JUMPI PUSH4 0xF5F70808 EQ PUSH2 0x96 JUMPI PUSH1 0x0 DUP1 REVERT JUMPDEST CALLVALUE PUSH2 0xF53 JUMPI PUSH2 0x1E0 CALLDATASIZE PUSH1 0x3 NOT ADD SLT PUSH2 0xF53 JUMPI PUSH1 0x4 CALLDATALOAD PUSH1 0x1 PUSH1 0x1 PUSH1 0x40 SHL SUB DUP2 GT PUSH2 0xF53 JUMPI PUSH2 0xC7 SWAP1 CALLDATASIZE SWAP1 PUSH1 0x4 ADD PUSH2 0x1BA9 JUMP JUMPDEST PUSH2 0x240 MSTORE PUSH2 0x200 MSTORE PUSH1 0x24 CALLDATALOAD PUSH1 0x1 PUSH1 0x1 PUSH1 0x40 SHL SUB DUP2 GT PUSH2 0xF53 JUMPI PUSH2 0xEE SWAP1 CALLDATASIZE SWAP1 PUSH1 0x4 ADD PUSH2 0x1BA9 JUMP JUMPDEST PUSH2 0x100 MSTORE PUSH1 0x44 CALLDATALOAD PUSH2 0x1C0 DUP2 SWAP1 MSTORE PUSH1 0x1 PUSH1 0x1 PUSH1 0xA0 SHL SUB DUP2 AND SWAP1 SUB PUSH2 0xF53 JUMPI PUSH1 0x64 CALLDATALOAD PUSH1 0x1 PUSH1 0x1 PUSH1 0x40 SHL SUB DUP2 GT PUSH2 0xF53 JUMPI PUSH2 0x12A SWAP1 CALLDATASIZE SWAP1 PUSH1 0x4 ADD PUSH2 0x1BA9 JUMP JUMPDEST SWAP1 SWAP2 PUSH1 0x84 CALLDATALOAD PUSH4 0xFFFFFFFF DUP2 AND DUP2 SUB PUSH2 0xF53 JUMPI PUSH1 0xA4 CALLDATALOAD SWAP1 PUSH1 0xFF DUP3 AND DUP3 SUB PUSH2 0xF53 JUMPI PUSH1 0xC4 CALLDATALOAD PUSH1 0x1 PUSH1 0x1 PUSH1 0x40 SHL SUB DUP2 GT PUSH2 0xF53 JUMPI PUSH2 0x169 SWAP1 CALLDATASIZE SWAP1 PUSH1 0x4 ADD PUSH2 0x1BA9 JUMP JUMPDEST PUSH2 0x220 MSTORE PUSH2 0x260 MSTORE PUSH1 0xE4 CALLDATALOAD PUSH1 0x1 PUSH1 0x1 PUSH1 0x40 SHL SUB DUP2 GT PUSH2 0xF53 JUMPI PUSH2 0x190 SWAP1 CALLDATASIZE SWAP1 PUSH1 0x4 ADD PUSH2 0x1BA9 JUMP JUMPDEST PUSH2 0x104 CALLDATALOAD PUSH2 0x1E0 DUP2 SWAP1 MSTORE SWAP1 SWAP7 SWAP2 SWAP5 SWAP1 PUSH1 0x1 PUSH1 0x1 PUSH1 0xA0 SHL SUB DUP2 AND SWAP1 SUB PUSH2 0xF53 JUMPI PUSH1 0x1 PUSH1 0x1 PUSH1 0x40 SHL SUB PUSH2 0x124 CALLDATALOAD GT PUSH2 0xF53 JUMPI PUSH2 0x1D0 CALLDATASIZE PUSH2 0x124 CALLDATALOAD PUSH1 0x4 ADD PUSH2 0x1BA9 JUMP JUMPDEST PUSH2 0x160 MSTORE PUSH2 0x120 MSTORE PUSH2 0x144 CALLDATALOAD PUSH2 0x140 MSTORE PUSH4 0xFFFFFFFF PUSH2 0x140 MLOAD AND PUSH2 0x140 MLOAD SUB PUSH2 0xF53 JUMPI PUSH2 0x164 CALLDATALOAD PUSH2 0x1A0 MSTORE PUSH1 0xFF PUSH2 0x1A0 MLOAD AND PUSH2 0x1A0 MLOAD SUB PUSH2 0xF53 JUMPI PUSH2 0x184 CALLDATALOAD PUSH2 0x180 DUP2 SWAP1 MSTORE PUSH1 0x1 PUSH1 0x1 PUSH1 0x40 SHL SUB DUP2 AND SWAP1 SUB PUSH2 0xF53 JUMPI PUSH2 0x1A4 CALLDATALOAD PUSH1 0x1 PUSH1 0x1 PUSH1 0x40 SHL SUB DUP2 AND SWAP1 SUB PUSH2 0xF53 JUMPI PUSH1 0x1 PUSH1 0x1 PUSH1 0x40 SHL SUB PUSH2 0x1C4 CALLDATALOAD GT PUSH2 0xF53 JUMPI PUSH2 0x25A CALLDATASIZE PUSH2 0x1C4 CALLDATALOAD PUSH1 0x4 ADD PUSH2 0x1BA9 JUMP JUMPDEST PUSH1 0xE0 MSTORE PUSH1 0xA0 MSTORE PUSH2 0x294 CALLER PUSH32 0x0 PUSH1 0x1 PUSH1 0x1 PUSH1 0xA0 SHL SUB AND EQ PUSH2 0x1EB0 JUMP JUMPDEST PUSH1 0xFF PUSH2 0x1A0 MLOAD AND PUSH1 0xFF DUP6 AND ADD PUSH1 0xFF DUP2 GT PUSH2 0x951 JUMPI PUSH1 0xFF PUSH1 0x64 SWAP2 AND SUB PUSH2 0xF15 JUMPI PUSH4 0xFFFFFFFF DUP4 AND ISZERO ISZERO DUP1 PUSH2 0xF03 JUMPI JUMPDEST ISZERO PUSH2 0xECB JUMPI PUSH2 0x180 MLOAD PUSH1 0x1 PUSH1 0x1 PUSH1 0x40 SHL SUB PUSH2 0x1A4 CALLDATALOAD DUP2 AND SWAP2 AND LT ISZERO PUSH2 0xE95 JUMPI PUSH2 0x1E0 MLOAD PUSH2 0x1C0 MLOAD PUSH1 0x1 PUSH1 0x1 PUSH1 0xA0 SHL SUB SWAP1 DUP2 AND SWAP2 AND EQ PUSH2 0xE54 JUMPI PUSH1 0x40 MLOAD PUSH1 0x20 DUP2 ADD SWAP1 PUSH2 0x240 MLOAD PUSH2 0x200 MLOAD DUP4 CALLDATACOPY PUSH2 0x345 PUSH1 0x40 DUP3 PUSH2 0x240 MLOAD DUP2 ADD PUSH1 0x20 DUP2 ADD PUSH1 0x0 DUP2 MSTORE PUSH2 0x220 MLOAD SWAP1 PUSH2 0x260 MLOAD SWAP1 CALLDATACOPY PUSH2 0x220 MLOAD ADD TIMESTAMP PUSH1 0x20 DUP3 ADD MSTORE SUB PUSH1 0x20 DUP2 ADD DUP5 MSTORE ADD DUP3 PUSH2 0x1E47 JUMP JUMPDEST MLOAD SWAP1 KECCAK256 PUSH1 0xC0 MSTORE PUSH1 0xC0 MLOAD PUSH1 0x0 MSTORE PUSH1 0x0 PUSH1 0x20 MSTORE PUSH1 0x13 PUSH1 0x40 PUSH1 0x0 KECCAK256 ADD SLOAD PUSH2 0xE16 JUMPI PUSH1 0xC0 MLOAD PUSH1 0x0 DUP2 DUP2 MSTORE PUSH1 0x20 DUP2 SWAP1 MSTORE PUSH1 0x40 SWAP1 KECCAK256 PUSH1 0x80 DUP2 SWAP1 MSTORE SWAP1 DUP2 SSTORE PUSH1 0x1 DUP2 ADD DUP1 SLOAD PUSH1 0x1 PUSH1 0x1 PUSH1 0xA0 SHL SUB NOT SWAP1 DUP2 AND CALLER OR SWAP1 SWAP2 SSTORE PUSH2 0x1C0 MLOAD PUSH1 0x2 SWAP1 SWAP3 ADD DUP1 SLOAD SWAP1 SWAP2 AND PUSH1 0x1 PUSH1 0x1 PUSH1 0xA0 SHL SUB SWAP3 SWAP1 SWAP3 AND SWAP2 SWAP1 SWAP2 OR SWAP1 SSTORE PUSH2 0x100 MLOAD PUSH1 0x1 PUSH1 0x1 PUSH1 0x40 SHL SUB LT PUSH2 0x9ED JUMPI PUSH2 0x3E5 PUSH2 0x100 MLOAD PUSH2 0x3DA PUSH1 0x3 PUSH1 0x80 MLOAD ADD SLOAD PUSH2 0x1D26 JUMP JUMPDEST PUSH1 0x3 PUSH1 0x80 MLOAD ADD PUSH2 0x1EED JUMP JUMPDEST PUSH1 0x0 SWAP1 PUSH1 0x1F PUSH2 0x100 MLOAD GT PUSH1 0x1 EQ PUSH2 0xD99 JUMPI PUSH2 0x412 SWAP2 PUSH1 0x0 SWAP2 PUSH2 0x100 MLOAD PUSH2 0xD8E JUMPI JUMPDEST POP POP PUSH2 0x100 MLOAD SWAP1 PUSH2 0x1F43 JUMP JUMPDEST PUSH1 0x3 PUSH1 0x80 MLOAD ADD SSTORE JUMPDEST PUSH2 0x240 MLOAD PUSH1 0x1 PUSH1 0x1 PUSH1 0x40 SHL SUB LT PUSH2 0x9ED JUMPI PUSH2 0x44C PUSH2 0x240 MLOAD PUSH2 0x441 PUSH1 0x4 PUSH1 0x80 MLOAD ADD SLOAD PUSH2 0x1D26 JUMP JUMPDEST PUSH1 0x4 PUSH1 0x80 MLOAD ADD PUSH2 0x1EED JUMP JUMPDEST PUSH1 0x0 PUSH1 0x1F PUSH2 0x240 MLOAD GT PUSH1 0x1 EQ PUSH2 0xCFA JUMPI SWAP2 PUSH2 0x4A0 PUSH4 0xFFFFFFFF SWAP3 PUSH2 0x484 PUSH1 0xFF SWAP7 SWAP6 PUSH1 0x0 SWAP1 PUSH2 0x240 MLOAD PUSH2 0xCEC JUMPI JUMPDEST POP PUSH2 0x240 MLOAD SWAP1 PUSH2 0x1F43 JUMP JUMPDEST PUSH1 0x4 PUSH1 0x80 MLOAD ADD SSTORE JUMPDEST PUSH1 0x40 MLOAD SWAP8 PUSH2 0x499 DUP10 PUSH2 0x1DF6 JUMP JUMPDEST CALLDATASIZE SWAP2 PUSH2 0x1E6A JUMP JUMPDEST DUP7 MSTORE PUSH1 0x40 MLOAD PUSH2 0x4AE DUP2 PUSH2 0x1E2C JUMP JUMPDEST PUSH1 0x0 DUP2 MSTORE PUSH1 0x20 DUP8 ADD MSTORE AND PUSH1 0x40 DUP6 ADD MSTORE AND PUSH1 0x60 DUP4 ADD MSTORE DUP2 MLOAD DUP1 MLOAD SWAP1 SWAP4 SWAP1 PUSH1 0x1 PUSH1 0x1 PUSH1 0x40 SHL SUB DUP2 GT PUSH2 0x9ED JUMPI PUSH2 0x4F6 DUP2 PUSH2 0x4EB PUSH1 0x5 PUSH1 0x80 MLOAD ADD SLOAD PUSH2 0x1D26 JUMP JUMPDEST PUSH1 0x5 PUSH1 0x80 MLOAD ADD PUSH2 0x1EED JUMP JUMPDEST PUSH1 0x20 PUSH1 0x1F DUP3 GT PUSH1 0x1 EQ PUSH2 0xC79 JUMPI DUP2 SWAP1 PUSH2 0x51B SWAP4 SWAP5 SWAP6 SWAP7 PUSH1 0x0 SWAP3 PUSH2 0xA03 JUMPI JUMPDEST POP POP PUSH2 0x1F43 JUMP JUMPDEST PUSH1 0x5 PUSH1 0x80 MLOAD ADD SSTORE JUMPDEST PUSH1 0x20 DUP4 ADD MLOAD DUP1 MLOAD SWAP1 SWAP4 SWAP1 PUSH1 0x1 PUSH1 0x1 PUSH1 0x40 SHL SUB DUP2 GT PUSH2 0x9ED JUMPI PUSH2 0x559 DUP2 PUSH2 0x54E PUSH1 0x6 PUSH1 0x80 MLOAD ADD SLOAD PUSH2 0x1D26 JUMP JUMPDEST PUSH1 0x6 PUSH1 0x80 MLOAD ADD PUSH2 0x1EED JUMP JUMPDEST PUSH1 0x20 PUSH1 0x1F DUP3 GT PUSH1 0x1 EQ PUSH2 0xC06 JUMPI DUP2 SWAP1 PUSH2 0x57D SWAP4 SWAP5 SWAP6 SWAP7 PUSH1 0x0 SWAP3 PUSH2 0xA03 JUMPI POP POP PUSH2 0x1F43 JUMP JUMPDEST PUSH1 0x6 PUSH1 0x80 MLOAD ADD SSTORE JUMPDEST PUSH1 0x7 PUSH1 0x80 MLOAD ADD SWAP1 PUSH4 0xFFFFFFFF PUSH1 0x40 DUP3 ADD MLOAD AND DUP3 SLOAD SWAP2 PUSH1 0x60 PUSH1 0xFF PUSH1 0x20 SHL SWAP2 ADD MLOAD PUSH1 0x20 SHL AND SWAP2 PUSH5 0xFFFFFFFFFF NOT AND OR OR SWAP1 SSTORE PUSH1 0x8 PUSH1 0x80 MLOAD ADD PUSH1 0x1 DUP1 PUSH1 0xA0 SHL SUB PUSH2 0x1E0 MLOAD AND PUSH1 0x1 DUP1 PUSH1 0xA0 SHL SUB NOT DUP3 SLOAD AND OR SWAP1 SSTORE PUSH1 0x1 DUP1 PUSH1 0x40 SHL SUB DUP2 GT PUSH2 0x9ED JUMPI PUSH2 0x600 DUP2 PUSH2 0x5F5 PUSH1 0x9 PUSH1 0x80 MLOAD ADD SLOAD PUSH2 0x1D26 JUMP JUMPDEST PUSH1 0x9 PUSH1 0x80 MLOAD ADD PUSH2 0x1EED JUMP JUMPDEST PUSH1 0x0 SWAP2 PUSH1 0x1F DUP3 GT PUSH1 0x1 EQ PUSH2 0xB95 JUMPI PUSH2 0x621 SWAP3 PUSH1 0x0 SWAP2 DUP4 PUSH2 0xB8A JUMPI POP POP PUSH2 0x1F43 JUMP JUMPDEST PUSH1 0x9 PUSH1 0x80 MLOAD ADD SSTORE JUMPDEST PUSH2 0x220 MLOAD PUSH1 0x1 PUSH1 0x1 PUSH1 0x40 SHL SUB LT PUSH2 0x9ED JUMPI PUSH2 0x65B PUSH2 0x220 MLOAD PUSH2 0x650 PUSH1 0xA PUSH1 0x80 MLOAD ADD SLOAD PUSH2 0x1D26 JUMP JUMPDEST PUSH1 0xA PUSH1 0x80 MLOAD ADD PUSH2 0x1EED JUMP JUMPDEST PUSH1 0x0 PUSH1 0x1F PUSH2 0x220 MLOAD GT PUSH1 0x1 EQ PUSH2 0xB08 JUMPI PUSH2 0x686 SWAP1 PUSH1 0x0 SWAP1 PUSH2 0x220 MLOAD PUSH2 0xAFA JUMPI JUMPDEST POP PUSH2 0x220 MLOAD SWAP1 PUSH2 0x1F43 JUMP JUMPDEST PUSH1 0xA PUSH1 0x80 MLOAD ADD SSTORE JUMPDEST PUSH1 0x40 MLOAD PUSH2 0x69A DUP2 PUSH2 0x1DF6 JUMP JUMPDEST PUSH2 0x6AB CALLDATASIZE PUSH2 0x160 MLOAD PUSH2 0x120 MLOAD PUSH2 0x1E6A JUMP JUMPDEST DUP2 MSTORE PUSH1 0x40 MLOAD PUSH2 0x6B9 DUP2 PUSH2 0x1E2C JUMP JUMPDEST PUSH1 0x0 DUP2 MSTORE PUSH1 0x20 DUP3 ADD MSTORE PUSH2 0x140 MLOAD PUSH4 0xFFFFFFFF AND PUSH1 0x40 DUP3 ADD MSTORE PUSH2 0x1A0 MLOAD PUSH1 0xFF AND PUSH1 0x60 DUP3 ADD MSTORE DUP1 MLOAD DUP1 MLOAD SWAP1 PUSH1 0x1 PUSH1 0x1 PUSH1 0x40 SHL SUB DUP3 GT PUSH2 0x9ED JUMPI PUSH2 0x70E DUP3 PUSH2 0x703 PUSH1 0xB PUSH1 0x80 MLOAD ADD SLOAD PUSH2 0x1D26 JUMP JUMPDEST PUSH1 0xB PUSH1 0x80 MLOAD ADD PUSH2 0x1EED JUMP JUMPDEST PUSH1 0x20 SWAP1 PUSH1 0x1F DUP4 GT PUSH1 0x1 EQ PUSH2 0xA84 JUMPI PUSH2 0x730 SWAP3 SWAP2 PUSH1 0x0 SWAP2 DUP4 PUSH2 0xA03 JUMPI POP POP PUSH2 0x1F43 JUMP JUMPDEST PUSH1 0xB PUSH1 0x80 MLOAD ADD SSTORE JUMPDEST PUSH1 0x20 DUP2 ADD MLOAD DUP1 MLOAD SWAP1 PUSH1 0x1 PUSH1 0x1 PUSH1 0x40 SHL SUB DUP3 GT PUSH2 0x9ED JUMPI PUSH2 0x76C DUP3 PUSH2 0x761 PUSH1 0xC PUSH1 0x80 MLOAD ADD SLOAD PUSH2 0x1D26 JUMP JUMPDEST PUSH1 0xC PUSH1 0x80 MLOAD ADD PUSH2 0x1EED JUMP JUMPDEST PUSH1 0x20 SWAP1 PUSH1 0x1F DUP4 GT PUSH1 0x1 EQ PUSH2 0xA0E JUMPI PUSH2 0x78E SWAP3 SWAP2 PUSH1 0x0 SWAP2 DUP4 PUSH2 0xA03 JUMPI POP POP PUSH2 0x1F43 JUMP JUMPDEST PUSH1 0xC PUSH1 0x80 MLOAD ADD SSTORE JUMPDEST PUSH1 0x80 MLOAD PUSH1 0x40 DUP3 DUP2 ADD MLOAD PUSH1 0xD DUP4 ADD DUP1 SLOAD PUSH1 0x60 SWAP1 SWAP6 ADD MLOAD PUSH1 0xFF PUSH1 0x20 SHL PUSH1 0x20 SWAP2 SWAP1 SWAP2 SHL AND PUSH4 0xFFFFFFFF SWAP1 SWAP3 AND PUSH5 0xFFFFFFFFFF NOT SWAP1 SWAP6 AND SWAP5 SWAP1 SWAP5 OR OR SWAP1 SWAP3 SSTORE PUSH1 0xE ADD DUP1 SLOAD PUSH2 0x180 MLOAD PUSH1 0x1 PUSH1 0x40 SHL PUSH1 0x1 PUSH1 0x80 SHL SUB PUSH2 0x1A4 CALLDATALOAD SWAP1 SWAP5 SHL SWAP4 SWAP1 SWAP4 AND PUSH1 0x1 PUSH1 0x1 PUSH1 0x40 SHL SUB SWAP4 DUP5 AND PUSH1 0x1 PUSH1 0x1 PUSH1 0x80 SHL SUB NOT SWAP1 SWAP3 AND SWAP2 SWAP1 SWAP2 OR OR SWAP1 SSTORE PUSH1 0xE0 MLOAD GT PUSH2 0x9ED JUMPI PUSH2 0x836 PUSH1 0xE0 MLOAD PUSH2 0x82B PUSH1 0xF PUSH1 0x80 MLOAD ADD SLOAD PUSH2 0x1D26 JUMP JUMPDEST PUSH1 0xF PUSH1 0x80 MLOAD ADD PUSH2 0x1EED JUMP JUMPDEST PUSH1 0x0 PUSH1 0x1F PUSH1 0xE0 MLOAD GT PUSH1 0x1 EQ PUSH2 0x974 JUMPI PUSH2 0x85E SWAP1 PUSH1 0x0 SWAP1 PUSH1 0xE0 MLOAD PUSH2 0x967 JUMPI JUMPDEST POP PUSH1 0xE0 MLOAD SWAP1 PUSH2 0x1F43 JUMP JUMPDEST PUSH1 0xF PUSH1 0x80 MLOAD ADD SSTORE JUMPDEST PUSH1 0x11 PUSH1 0x80 MLOAD ADD PUSH1 0x1 PUSH1 0xFF NOT DUP3 SLOAD AND OR SWAP1 SSTORE TIMESTAMP PUSH1 0x13 PUSH1 0x80 MLOAD ADD SSTORE TIMESTAMP PUSH1 0x14 PUSH1 0x80 MLOAD ADD SSTORE PUSH1 0x1 DUP1 PUSH1 0xA0 SHL SUB PUSH2 0x1C0 MLOAD AND PUSH1 0x0 MSTORE PUSH1 0x1 PUSH1 0x20 MSTORE PUSH2 0x8AB PUSH1 0xC0 MLOAD PUSH1 0x40 PUSH1 0x0 KECCAK256 PUSH2 0x1FC3 JUMP JUMPDEST PUSH1 0x1 DUP1 PUSH1 0xA0 SHL SUB PUSH2 0x1E0 MLOAD AND PUSH1 0x0 MSTORE PUSH1 0x1 PUSH1 0x20 MSTORE PUSH2 0x8CF PUSH1 0xC0 MLOAD PUSH1 0x40 PUSH1 0x0 KECCAK256 PUSH2 0x1FC3 JUMP JUMPDEST PUSH1 0x2 SLOAD PUSH1 0x0 NOT DUP2 EQ PUSH2 0x951 JUMPI PUSH1 0x1 ADD PUSH1 0x2 SSTORE PUSH1 0x40 MLOAD PUSH1 0x60 DUP2 MSTORE PUSH2 0x914 PUSH2 0x8FF PUSH1 0x60 DUP4 ADD PUSH2 0x240 MLOAD PUSH2 0x200 MLOAD PUSH2 0x1F56 JUMP JUMPDEST DUP3 DUP2 SUB PUSH1 0x20 DUP5 ADD MSTORE PUSH2 0x220 MLOAD PUSH2 0x260 MLOAD PUSH2 0x1F56 JUMP JUMPDEST TIMESTAMP PUSH1 0x40 DUP4 ADD MSTORE PUSH32 0xA3C2D4EF9BFEB4D857574F1A496138DDCCBA145C6B44880725E3FF94606DFB54 CALLER SWAP3 DUP1 PUSH1 0xC0 MLOAD SWAP4 SUB SWAP1 LOG3 PUSH1 0x20 PUSH1 0x40 MLOAD PUSH1 0xC0 MLOAD DUP2 MSTORE RETURN JUMPDEST PUSH4 0x4E487B71 PUSH1 0xE0 SHL PUSH1 0x0 MSTORE PUSH1 0x11 PUSH1 0x4 MSTORE PUSH1 0x24 PUSH1 0x0 REVERT JUMPDEST SWAP1 POP PUSH1 0xA0 MLOAD ADD CALLDATALOAD CODESIZE PUSH2 0x854 JUMP JUMPDEST PUSH1 0x1F NOT PUSH1 0xE0 MLOAD AND SWAP1 PUSH1 0xF PUSH1 0x80 MLOAD ADD PUSH1 0x0 MSTORE PUSH1 0x20 PUSH1 0x0 KECCAK256 SWAP2 PUSH1 0x0 JUMPDEST DUP2 DUP2 LT PUSH2 0x9D3 JUMPI POP PUSH1 0xE0 MLOAD GT PUSH2 0x9B5 JUMPI JUMPDEST POP POP PUSH1 0x1 PUSH1 0xE0 MLOAD DUP2 SHL ADD PUSH1 0xF PUSH1 0x80 MLOAD ADD SSTORE PUSH2 0x866 JUMP JUMPDEST PUSH1 0x0 NOT PUSH1 0xF8 PUSH1 0xE0 MLOAD PUSH1 0x3 SHL AND SHR NOT SWAP1 PUSH1 0xA0 MLOAD ADD CALLDATALOAD AND SWAP1 SSTORE CODESIZE DUP1 PUSH2 0x99F JUMP JUMPDEST SWAP2 SWAP3 PUSH1 0x20 PUSH1 0x1 DUP2 SWAP3 DUP7 PUSH1 0xA0 MLOAD ADD CALLDATALOAD DUP2 SSTORE ADD SWAP5 ADD SWAP3 ADD PUSH2 0x98E JUMP JUMPDEST PUSH4 0x4E487B71 PUSH1 0xE0 SHL PUSH1 0x0 MSTORE PUSH1 0x41 PUSH1 0x4 MSTORE PUSH1 0x24 PUSH1 0x0 REVERT JUMPDEST ADD MLOAD SWAP1 POP CODESIZE DUP1 PUSH2 0x514 JUMP JUMPDEST SWAP2 SWAP1 PUSH1 0xC PUSH1 0x80 MLOAD ADD PUSH1 0x0 MSTORE PUSH1 0x20 PUSH1 0x0 KECCAK256 SWAP1 PUSH1 0x0 SWAP4 JUMPDEST PUSH1 0x1F NOT DUP5 AND DUP6 LT PUSH2 0xA69 JUMPI PUSH1 0x1 SWAP5 POP DUP4 PUSH1 0x1F NOT DUP2 AND LT PUSH2 0xA50 JUMPI JUMPDEST POP POP POP DUP2 SHL ADD PUSH1 0xC PUSH1 0x80 MLOAD ADD SSTORE PUSH2 0x796 JUMP JUMPDEST ADD MLOAD PUSH1 0x0 NOT PUSH1 0xF8 DUP5 PUSH1 0x3 SHL AND SHR NOT AND SWAP1 SSTORE CODESIZE DUP1 DUP1 PUSH2 0xA3E JUMP JUMPDEST DUP2 DUP2 ADD MLOAD DUP4 SSTORE PUSH1 0x20 SWAP5 DUP6 ADD SWAP5 PUSH1 0x1 SWAP1 SWAP4 ADD SWAP3 SWAP1 SWAP2 ADD SWAP1 PUSH2 0xA23 JUMP JUMPDEST SWAP2 SWAP1 PUSH1 0xB PUSH1 0x80 MLOAD ADD PUSH1 0x0 MSTORE PUSH1 0x20 PUSH1 0x0 KECCAK256 SWAP1 PUSH1 0x0 SWAP4 JUMPDEST PUSH1 0x1F NOT DUP5 AND DUP6 LT PUSH2 0xADF JUMPI PUSH1 0x1 SWAP5 POP DUP4 PUSH1 0x1F NOT DUP2 AND LT PUSH2 0xAC6 JUMPI JUMPDEST POP POP POP DUP2 SHL ADD PUSH1 0xB PUSH1 0x80 MLOAD ADD SSTORE PUSH2 0x738 JUMP JUMPDEST ADD MLOAD PUSH1 0x0 NOT PUSH1 0xF8 DUP5 PUSH1 0x3 SHL AND SHR NOT AND SWAP1 SSTORE CODESIZE DUP1 DUP1 PUSH2 0xAB4 JUMP JUMPDEST DUP2 DUP2 ADD MLOAD DUP4 SSTORE PUSH1 0x20 SWAP5 DUP6 ADD SWAP5 PUSH1 0x1 SWAP1 SWAP4 ADD SWAP3 SWAP1 SWAP2 ADD SWAP1 PUSH2 0xA99 JUMP JUMPDEST SWAP1 POP PUSH2 0x260 MLOAD ADD CALLDATALOAD CODESIZE PUSH2 0x67B JUMP JUMPDEST PUSH1 0xA PUSH1 0x80 MLOAD ADD PUSH1 0x0 MSTORE PUSH1 0x20 PUSH1 0x0 KECCAK256 SWAP1 PUSH1 0x0 JUMPDEST PUSH2 0x220 MLOAD PUSH1 0x1F NOT AND DUP2 LT PUSH2 0xB6F JUMPI POP PUSH2 0x220 MLOAD PUSH1 0x1F NOT DUP2 AND LT PUSH2 0xB4F JUMPI JUMPDEST POP POP PUSH1 0x1 PUSH2 0x220 MLOAD DUP2 SHL ADD PUSH1 0xA PUSH1 0x80 MLOAD ADD SSTORE PUSH2 0x68E JUMP JUMPDEST PUSH1 0x0 NOT PUSH1 0xF8 PUSH2 0x220 MLOAD PUSH1 0x3 SHL AND SHR NOT SWAP1 PUSH2 0x260 MLOAD ADD CALLDATALOAD AND SWAP1 SSTORE CODESIZE DUP1 PUSH2 0xB38 JUMP JUMPDEST SWAP1 SWAP2 PUSH1 0x20 PUSH1 0x1 DUP2 SWAP3 DUP6 PUSH2 0x260 MLOAD ADD CALLDATALOAD DUP2 SSTORE ADD SWAP4 ADD SWAP2 ADD PUSH2 0xB1A JUMP JUMPDEST ADD CALLDATALOAD SWAP1 POP CODESIZE DUP1 PUSH2 0x514 JUMP JUMPDEST PUSH1 0x9 PUSH1 0x80 MLOAD ADD PUSH1 0x0 MSTORE PUSH1 0x20 PUSH1 0x0 KECCAK256 SWAP1 PUSH1 0x0 JUMPDEST PUSH1 0x1F NOT DUP5 AND DUP2 LT PUSH2 0xBEE JUMPI POP PUSH1 0x1 SWAP4 DUP4 PUSH1 0x1F NOT DUP2 AND LT PUSH2 0xBD4 JUMPI JUMPDEST POP POP POP DUP2 SHL ADD PUSH1 0x9 PUSH1 0x80 MLOAD ADD SSTORE PUSH2 0x629 JUMP JUMPDEST ADD CALLDATALOAD PUSH1 0x0 NOT PUSH1 0x3 DUP5 SWAP1 SHL PUSH1 0xF8 AND SHR NOT AND SWAP1 SSTORE CODESIZE DUP1 DUP1 PUSH2 0xBC2 JUMP JUMPDEST DUP5 DUP3 ADD CALLDATALOAD DUP4 SSTORE PUSH1 0x20 SWAP5 DUP6 ADD SWAP5 PUSH1 0x1 SWAP1 SWAP4 ADD SWAP3 ADD PUSH2 0xBA7 JUMP JUMPDEST PUSH1 0x6 PUSH1 0x80 MLOAD ADD PUSH1 0x0 MSTORE PUSH1 0x20 PUSH1 0x0 KECCAK256 SWAP1 PUSH1 0x0 JUMPDEST PUSH1 0x1F NOT DUP5 AND DUP2 LT PUSH2 0xC61 JUMPI POP PUSH1 0x1 SWAP4 SWAP5 SWAP6 SWAP7 DUP4 PUSH1 0x1F NOT DUP2 AND LT PUSH2 0xC48 JUMPI JUMPDEST POP POP POP DUP2 SHL ADD PUSH1 0x6 PUSH1 0x80 MLOAD ADD SSTORE PUSH2 0x585 JUMP JUMPDEST ADD MLOAD PUSH1 0x0 NOT PUSH1 0xF8 DUP5 PUSH1 0x3 SHL AND SHR NOT AND SWAP1 SSTORE CODESIZE DUP1 DUP1 PUSH2 0xC36 JUMP JUMPDEST SWAP1 SWAP2 PUSH1 0x20 PUSH1 0x1 DUP2 SWAP3 DUP6 DUP12 ADD MLOAD DUP2 SSTORE ADD SWAP4 ADD SWAP2 ADD PUSH2 0xC18 JUMP JUMPDEST PUSH1 0x5 PUSH1 0x80 MLOAD ADD PUSH1 0x0 MSTORE PUSH1 0x20 PUSH1 0x0 KECCAK256 SWAP1 PUSH1 0x0 JUMPDEST PUSH1 0x1F NOT DUP5 AND DUP2 LT PUSH2 0xCD4 JUMPI POP PUSH1 0x1 SWAP4 SWAP5 SWAP6 SWAP7 DUP4 PUSH1 0x1F NOT DUP2 AND LT PUSH2 0xCBB JUMPI JUMPDEST POP POP POP DUP2 SHL ADD PUSH1 0x5 PUSH1 0x80 MLOAD ADD SSTORE PUSH2 0x523 JUMP JUMPDEST ADD MLOAD PUSH1 0x0 NOT PUSH1 0xF8 DUP5 PUSH1 0x3 SHL AND SHR NOT AND SWAP1 SSTORE CODESIZE DUP1 DUP1 PUSH2 0xCA9 JUMP JUMPDEST SWAP1 SWAP2 PUSH1 0x20 PUSH1 0x1 DUP2 SWAP3 DUP6 DUP12 ADD MLOAD DUP2 SSTORE ADD SWAP4 ADD SWAP2 ADD PUSH2 0xC8B JUMP JUMPDEST SWAP1 POP PUSH2 0x200 MLOAD ADD CALLDATALOAD CODESIZE PUSH2 0x479 JUMP JUMPDEST PUSH1 0x4 PUSH1 0x80 MLOAD ADD PUSH1 0x0 MSTORE PUSH1 0x20 PUSH1 0x0 KECCAK256 SWAP1 PUSH1 0x0 JUMPDEST PUSH2 0x240 MLOAD PUSH1 0x1F NOT AND DUP2 LT PUSH2 0xD73 JUMPI POP PUSH4 0xFFFFFFFF SWAP3 PUSH1 0xFF SWAP6 SWAP5 SWAP3 PUSH2 0x4A0 SWAP3 PUSH2 0x240 MLOAD PUSH1 0x1F NOT PUSH2 0x240 MLOAD AND LT PUSH2 0xD53 JUMPI JUMPDEST POP POP PUSH1 0x1 PUSH2 0x240 MLOAD DUP2 SHL ADD PUSH1 0x4 PUSH1 0x80 MLOAD ADD SSTORE PUSH2 0x48C JUMP JUMPDEST PUSH1 0x0 NOT PUSH1 0xF8 PUSH2 0x240 MLOAD PUSH1 0x3 SHL AND SHR NOT SWAP1 PUSH2 0x200 MLOAD ADD CALLDATALOAD AND SWAP1 SSTORE CODESIZE DUP1 PUSH2 0xD3C JUMP JUMPDEST SWAP1 SWAP2 PUSH1 0x20 PUSH1 0x1 DUP2 SWAP3 DUP6 PUSH2 0x200 MLOAD ADD CALLDATALOAD DUP2 SSTORE ADD SWAP4 ADD SWAP2 ADD PUSH2 0xD0C JUMP JUMPDEST ADD CALLDATALOAD SWAP1 POP CODESIZE DUP1 PUSH2 0x406 JUMP JUMPDEST PUSH1 0x3 PUSH1 0x80 MLOAD ADD PUSH1 0x0 MSTORE PUSH1 0x20 PUSH1 0x0 KECCAK256 SWAP2 PUSH1 0x0 JUMPDEST PUSH2 0x100 MLOAD PUSH1 0x1F NOT AND DUP2 LT PUSH2 0xDFE JUMPI POP PUSH2 0x100 MLOAD PUSH1 0x1F NOT DUP2 AND LT PUSH2 0xDE1 JUMPI JUMPDEST POP POP POP PUSH1 0x1 PUSH2 0x100 MLOAD DUP2 SHL ADD PUSH1 0x3 PUSH1 0x80 MLOAD ADD SSTORE PUSH2 0x41A JUMP JUMPDEST PUSH1 0x0 NOT PUSH1 0xF8 PUSH2 0x100 MLOAD PUSH1 0x3 SHL AND SHR NOT SWAP2 ADD CALLDATALOAD AND SWAP1 SSTORE CODESIZE DUP1 DUP1 PUSH2 0xDC9 JUMP JUMPDEST SWAP1 SWAP3 PUSH1 0x20 PUSH1 0x1 DUP2 SWAP3 DUP7 DUP7 ADD CALLDATALOAD DUP2 SSTORE ADD SWAP5 ADD SWAP2 ADD PUSH2 0xDAB JUMP JUMPDEST PUSH1 0x40 MLOAD PUSH3 0x461BCD PUSH1 0xE5 SHL DUP2 MSTORE PUSH1 0x20 PUSH1 0x4 DUP3 ADD MSTORE PUSH1 0x16 PUSH1 0x24 DUP3 ADD MSTORE PUSH22 0x20B3B932B2B6B2B73A1024A21031B7B63634B9B4B7B7 PUSH1 0x51 SHL PUSH1 0x44 DUP3 ADD MSTORE PUSH1 0x64 SWAP1 REVERT JUMPDEST PUSH1 0x40 MLOAD PUSH3 0x461BCD PUSH1 0xE5 SHL DUP2 MSTORE PUSH1 0x20 PUSH1 0x4 DUP3 ADD MSTORE PUSH1 0x19 PUSH1 0x24 DUP3 ADD MSTORE PUSH25 0x11985C9B595C9CC81B5D5CDD08189948191A5999995C995B9D PUSH1 0x3A SHL PUSH1 0x44 DUP3 ADD MSTORE PUSH1 0x64 SWAP1 REVERT JUMPDEST PUSH1 0x40 MLOAD PUSH3 0x461BCD PUSH1 0xE5 SHL DUP2 MSTORE PUSH1 0x20 PUSH1 0x4 DUP3 ADD MSTORE PUSH1 0xE PUSH1 0x24 DUP3 ADD MSTORE PUSH14 0x125B9D985B1A59081C195C9A5BD9 PUSH1 0x92 SHL PUSH1 0x44 DUP3 ADD MSTORE PUSH1 0x64 SWAP1 REVERT JUMPDEST PUSH1 0x40 MLOAD PUSH3 0x461BCD PUSH1 0xE5 SHL DUP2 MSTORE PUSH1 0x20 PUSH1 0x4 DUP3 ADD MSTORE PUSH1 0x10 PUSH1 0x24 DUP3 ADD MSTORE PUSH16 0x4C616E64206D757374206265203E203 PUSH1 0x84 SHL PUSH1 0x44 DUP3 ADD MSTORE PUSH1 0x64 SWAP1 REVERT JUMPDEST POP PUSH4 0xFFFFFFFF PUSH2 0x140 MLOAD AND ISZERO ISZERO PUSH2 0x2C2 JUMP JUMPDEST PUSH1 0x40 MLOAD PUSH3 0x461BCD PUSH1 0xE5 SHL DUP2 MSTORE PUSH1 0x20 PUSH1 0x4 DUP3 ADD MSTORE PUSH1 0x16 PUSH1 0x24 DUP3 ADD MSTORE PUSH22 0x5368617265206D7573742073756D20746F2031303025 PUSH1 0x50 SHL PUSH1 0x44 DUP3 ADD MSTORE PUSH1 0x64 SWAP1 REVERT JUMPDEST PUSH1 0x0 DUP1 REVERT JUMPDEST CALLVALUE PUSH2 0xF53 JUMPI PUSH1 0x20 DUP1 PUSH1 0x3 NOT CALLDATASIZE ADD SLT PUSH2 0xF53 JUMPI PUSH1 0x4 CALLDATALOAD DUP1 PUSH1 0x0 MSTORE PUSH1 0x0 DUP3 MSTORE PUSH2 0xF88 PUSH1 0x13 PUSH1 0x40 PUSH1 0x0 KECCAK256 ADD SLOAD ISZERO ISZERO PUSH2 0x1C56 JUMP JUMPDEST PUSH1 0x0 MSTORE PUSH1 0x0 DUP2 MSTORE PUSH1 0x40 PUSH1 0x0 KECCAK256 DUP1 SLOAD SWAP1 PUSH1 0x1 DUP1 PUSH1 0xA0 SHL SUB PUSH1 0x1 DUP3 ADD SLOAD AND SWAP3 PUSH1 0x7 DUP3 ADD SLOAD SWAP1 PUSH4 0xFFFFFFFF SWAP3 PUSH1 0xD DUP2 ADD SLOAD SWAP4 PUSH1 0xFF PUSH1 0x11 DUP4 ADD SLOAD AND SWAP5 PUSH1 0x5 DUP7 LT ISZERO PUSH2 0x110D JUMPI PUSH1 0x12 DUP4 ADD SLOAD SWAP4 PUSH1 0x13 DUP5 ADD SLOAD SWAP6 PUSH1 0x40 MLOAD SWAP1 DUP2 DUP1 PUSH1 0x3 DUP9 ADD SWAP1 PUSH2 0xFE9 SWAP2 PUSH2 0x1D60 JUMP JUMPDEST SUB PUSH2 0xFF4 SWAP1 DUP4 PUSH2 0x1E47 JUMP JUMPDEST PUSH1 0x40 MLOAD SWAP1 DUP2 PUSH2 0x1006 DUP2 PUSH1 0x4 DUP11 ADD PUSH2 0x1D60 JUMP JUMPDEST SUB PUSH2 0x1011 SWAP1 DUP4 PUSH2 0x1E47 JUMP JUMPDEST PUSH1 0x40 MLOAD SWAP2 DUP3 PUSH2 0x1023 DUP2 PUSH1 0x9 DUP12 ADD PUSH2 0x1D60 JUMP JUMPDEST SUB PUSH2 0x102E SWAP1 DUP5 PUSH2 0x1E47 JUMP JUMPDEST PUSH1 0x40 MLOAD SWAP4 DUP5 PUSH2 0x1040 DUP2 PUSH1 0xA DUP13 ADD PUSH2 0x1D60 JUMP JUMPDEST SUB PUSH2 0x104B SWAP1 DUP7 PUSH2 0x1E47 JUMP JUMPDEST PUSH1 0x40 MLOAD DUP1 PUSH1 0xF DUP2 SWAP12 ADD SWAP1 PUSH2 0x105E SWAP2 PUSH2 0x1D60 JUMP JUMPDEST SUB PUSH2 0x1069 SWAP1 DUP11 PUSH2 0x1E47 JUMP JUMPDEST PUSH1 0x40 MLOAD SWAP14 DUP15 SWAP14 DUP15 PUSH2 0x1C0 SWAP3 DUP4 SWAP3 DUP3 MSTORE DUP10 DUP3 ADD MSTORE PUSH1 0x40 ADD MSTORE DUP14 ADD PUSH2 0x108B SWAP2 PUSH2 0x1C16 JUMP JUMPDEST DUP13 DUP2 SUB PUSH1 0x60 DUP15 ADD MSTORE PUSH2 0x109C SWAP2 PUSH2 0x1C16 JUMP JUMPDEST SWAP1 DUP7 DUP2 AND PUSH1 0x80 DUP14 ADD MSTORE DUP5 SHR PUSH1 0xFF AND PUSH1 0xA0 DUP13 ADD MSTORE DUP11 DUP2 SUB PUSH1 0xC0 DUP13 ADD MSTORE PUSH2 0x10C0 SWAP2 PUSH2 0x1C16 JUMP JUMPDEST DUP10 DUP2 SUB PUSH1 0xE0 DUP12 ADD MSTORE PUSH2 0x10D1 SWAP2 PUSH2 0x1C16 JUMP JUMPDEST SWAP3 DUP3 AND PUSH2 0x100 DUP10 ADD MSTORE SHR PUSH1 0xFF AND PUSH2 0x120 DUP8 ADD MSTORE DUP6 DUP2 SUB PUSH2 0x140 DUP8 ADD MSTORE PUSH2 0x10F6 SWAP2 PUSH2 0x1C16 JUMP JUMPDEST SWAP3 PUSH2 0x160 DUP6 ADD MSTORE PUSH2 0x180 DUP5 ADD MSTORE PUSH2 0x1A0 DUP4 ADD MSTORE SUB SWAP1 RETURN JUMPDEST PUSH4 0x4E487B71 PUSH1 0xE0 SHL PUSH1 0x0 MSTORE PUSH1 0x21 PUSH1 0x4 MSTORE PUSH1 0x24 PUSH1 0x0 REVERT JUMPDEST CALLVALUE PUSH2 0xF53 JUMPI PUSH2 0x1131 CALLDATASIZE PUSH2 0x1BD6 JUMP JUMPDEST DUP3 PUSH1 0x0 SWAP4 SWAP3 SWAP4 MSTORE PUSH1 0x0 PUSH1 0x20 MSTORE PUSH2 0x1150 PUSH1 0x13 PUSH1 0x40 PUSH1 0x0 KECCAK256 ADD SLOAD ISZERO ISZERO PUSH2 0x1C56 JUMP JUMPDEST DUP2 PUSH1 0x0 MSTORE PUSH1 0x0 PUSH1 0x20 MSTORE PUSH1 0x40 PUSH1 0x0 KECCAK256 PUSH1 0x1 DUP1 PUSH1 0xA0 SHL SUB SWAP1 DUP2 DUP1 PUSH1 0x2 DUP4 ADD SLOAD AND CALLER EQ SWAP2 DUP3 ISZERO PUSH2 0x1592 JUMPI JUMPDEST POP POP DUP1 ISZERO PUSH2 0x1567 JUMPI JUMPDEST PUSH2 0x118A SWAP1 PUSH2 0x1F77 JUMP JUMPDEST DUP3 PUSH1 0x0 MSTORE PUSH1 0x0 PUSH1 0x20 MSTORE PUSH1 0x40 PUSH1 0x0 KECCAK256 SWAP2 PUSH1 0xFF PUSH1 0x11 DUP5 ADD SLOAD AND PUSH1 0x5 DUP2 LT ISZERO PUSH2 0x110D JUMPI PUSH1 0x1 SUB PUSH2 0x1522 JUMPI DUP2 PUSH1 0x2 DUP5 ADD SLOAD AND CALLER EQ PUSH1 0x0 EQ PUSH2 0x14FC JUMPI PUSH1 0x40 MLOAD PUSH2 0x11CD DUP2 PUSH2 0x1E11 JUMP JUMPDEST PUSH1 0x7 DUP2 MSTORE PUSH7 0x6661726D657231 PUSH1 0xC8 SHL PUSH1 0x20 DUP3 ADD MSTORE SWAP5 JUMPDEST PUSH1 0x12 DUP5 ADD SLOAD SWAP1 PUSH1 0x0 JUMPDEST DUP3 DUP2 LT PUSH2 0x14A7 JUMPI POP PUSH2 0x120F SWAP1 PUSH1 0x40 MLOAD SWAP4 PUSH2 0x1205 DUP6 PUSH2 0x1DF6 JUMP JUMPDEST CALLER DUP6 MSTORE CALLDATASIZE SWAP2 PUSH2 0x1E6A JUMP JUMPDEST PUSH1 0x20 DUP4 ADD SWAP1 DUP2 MSTORE PUSH1 0x40 DUP4 ADD DUP8 SWAP1 MSTORE TIMESTAMP PUSH1 0x60 DUP5 ADD MSTORE SWAP1 PUSH1 0x1 PUSH1 0x40 SHL DUP2 LT ISZERO PUSH2 0x9ED JUMPI DUP1 PUSH1 0x1 PUSH2 0x1246 SWAP3 ADD PUSH1 0x12 DUP8 ADD SSTORE PUSH1 0x12 DUP7 ADD PUSH2 0x1C9D JUMP JUMPDEST SWAP4 SWAP1 SWAP4 PUSH2 0x1491 JUMPI DUP3 MLOAD DUP5 SLOAD PUSH1 0x1 PUSH1 0x1 PUSH1 0xA0 SHL SUB NOT AND SWAP2 AND OR DUP4 SSTORE MLOAD DUP1 MLOAD SWAP1 PUSH1 0x1 PUSH1 0x1 PUSH1 0x40 SHL SUB DUP3 GT PUSH2 0x9ED JUMPI PUSH2 0x128C DUP3 PUSH2 0x1283 PUSH1 0x1 DUP8 ADD SLOAD PUSH2 0x1D26 JUMP JUMPDEST PUSH1 0x1 DUP8 ADD PUSH2 0x1EED JUMP JUMPDEST PUSH1 0x20 SWAP1 PUSH1 0x1F DUP4 GT PUSH1 0x1 EQ PUSH2 0x141F JUMPI PUSH2 0x12AE SWAP3 SWAP2 PUSH1 0x0 SWAP2 DUP4 PUSH2 0x1414 JUMPI POP POP PUSH2 0x1F43 JUMP JUMPDEST PUSH1 0x1 DUP4 ADD SSTORE JUMPDEST PUSH1 0x40 DUP2 ADD MLOAD DUP1 MLOAD SWAP1 PUSH1 0x1 PUSH1 0x1 PUSH1 0x40 SHL SUB DUP3 GT PUSH2 0x9ED JUMPI PUSH2 0x12E4 DUP3 PUSH2 0x12DB PUSH1 0x2 DUP8 ADD SLOAD PUSH2 0x1D26 JUMP JUMPDEST PUSH1 0x2 DUP8 ADD PUSH2 0x1EED JUMP JUMPDEST PUSH1 0x20 SWAP1 PUSH1 0x1F DUP4 GT PUSH1 0x1 EQ PUSH2 0x138B JUMPI PUSH1 0x60 PUSH1 0x11 SWAP5 PUSH2 0x1321 DUP6 PUSH1 0x0 DUP1 MLOAD PUSH1 0x20 PUSH2 0x200D DUP4 CODECOPY DUP2 MLOAD SWAP2 MSTORE SWAP10 SWAP7 PUSH1 0xFF SWAP10 SWAP7 PUSH1 0x3 SWAP7 PUSH1 0x0 SWAP3 PUSH2 0x1380 JUMPI POP POP PUSH2 0x1F43 JUMP JUMPDEST PUSH1 0x2 DUP6 ADD SSTORE JUMPDEST ADD MLOAD SWAP2 ADD SSTORE TIMESTAMP PUSH1 0x14 DUP3 ADD SSTORE PUSH1 0x2 PUSH1 0x12 DUP3 ADD SLOAD EQ PUSH2 0x136E JUMPI JUMPDEST ADD SLOAD AND SWAP3 PUSH2 0x1366 PUSH2 0x135B PUSH1 0x40 MLOAD SWAP3 PUSH1 0x40 DUP5 MSTORE PUSH1 0x40 DUP5 ADD SWAP1 PUSH2 0x1C16 JUMP JUMPDEST SWAP5 PUSH1 0x20 DUP4 ADD SWAP1 PUSH2 0x1C09 JUMP JUMPDEST DUP1 CALLER SWAP5 SUB SWAP1 LOG3 STOP JUMPDEST DUP1 DUP3 ADD DUP1 SLOAD DUP5 NOT AND PUSH1 0x2 OR SWAP1 SSTORE PUSH2 0x133F JUMP JUMPDEST ADD MLOAD SWAP1 POP DUP14 DUP1 PUSH2 0x514 JUMP JUMPDEST SWAP1 PUSH1 0x2 DUP6 ADD PUSH1 0x0 MSTORE PUSH1 0x20 PUSH1 0x0 KECCAK256 SWAP2 PUSH1 0x0 JUMPDEST PUSH1 0x1F NOT DUP6 AND DUP2 LT PUSH2 0x13FC JUMPI POP PUSH1 0x11 SWAP5 PUSH1 0x1 DUP6 PUSH1 0xFF SWAP9 SWAP6 PUSH1 0x3 SWAP6 PUSH1 0x60 SWAP6 PUSH1 0x0 DUP1 MLOAD PUSH1 0x20 PUSH2 0x200D DUP4 CODECOPY DUP2 MLOAD SWAP2 MSTORE SWAP13 SWAP10 PUSH1 0x1F NOT DUP2 AND LT PUSH2 0x13E4 JUMPI JUMPDEST POP POP POP DUP2 SHL ADD PUSH1 0x2 DUP6 ADD SSTORE PUSH2 0x1327 JUMP JUMPDEST ADD MLOAD PUSH1 0x0 NOT DUP4 DUP9 SHL PUSH1 0xF8 AND SHR NOT AND SWAP1 SSTORE DUP13 DUP1 DUP1 PUSH2 0x13D4 JUMP JUMPDEST SWAP2 SWAP3 PUSH1 0x20 PUSH1 0x1 DUP2 SWAP3 DUP7 DUP6 ADD MLOAD DUP2 SSTORE ADD SWAP5 ADD SWAP3 ADD PUSH2 0x139C JUMP JUMPDEST ADD MLOAD SWAP1 POP DUP9 DUP1 PUSH2 0x514 JUMP JUMPDEST SWAP2 SWAP1 PUSH1 0x1 DUP6 ADD PUSH1 0x0 MSTORE PUSH1 0x20 PUSH1 0x0 KECCAK256 SWAP1 PUSH1 0x0 SWAP4 JUMPDEST PUSH1 0x1F NOT DUP5 AND DUP6 LT PUSH2 0x1476 JUMPI PUSH1 0x1 SWAP5 POP DUP4 PUSH1 0x1F NOT DUP2 AND LT PUSH2 0x145D JUMPI JUMPDEST POP POP POP DUP2 SHL ADD PUSH1 0x1 DUP4 ADD SSTORE PUSH2 0x12B4 JUMP JUMPDEST ADD MLOAD PUSH1 0x0 NOT PUSH1 0xF8 DUP5 PUSH1 0x3 SHL AND SHR NOT AND SWAP1 SSTORE DUP8 DUP1 DUP1 PUSH2 0x144D JUMP JUMPDEST DUP2 DUP2 ADD MLOAD DUP4 SSTORE PUSH1 0x20 SWAP5 DUP6 ADD SWAP5 PUSH1 0x1 SWAP1 SWAP4 ADD SWAP3 SWAP1 SWAP2 ADD SWAP1 PUSH2 0x1432 JUMP JUMPDEST PUSH4 0x4E487B71 PUSH1 0xE0 SHL PUSH1 0x0 MSTORE PUSH1 0x0 PUSH1 0x4 MSTORE PUSH1 0x24 PUSH1 0x0 REVERT JUMPDEST PUSH2 0x14B4 DUP2 PUSH1 0x12 DUP9 ADD PUSH2 0x1C9D JUMP JUMPDEST POP SLOAD DUP6 AND CALLER EQ PUSH2 0x14C6 JUMPI PUSH1 0x1 ADD PUSH2 0x11EC JUMP JUMPDEST PUSH1 0x40 MLOAD PUSH3 0x461BCD PUSH1 0xE5 SHL DUP2 MSTORE PUSH1 0x20 PUSH1 0x4 DUP3 ADD MSTORE PUSH1 0xE PUSH1 0x24 DUP3 ADD MSTORE PUSH14 0x105B1C9958591E481CDA59DB9959 PUSH1 0x92 SHL PUSH1 0x44 DUP3 ADD MSTORE PUSH1 0x64 SWAP1 REVERT JUMPDEST PUSH1 0x40 MLOAD PUSH2 0x1508 DUP2 PUSH2 0x1E11 JUMP JUMPDEST PUSH1 0x7 DUP2 MSTORE PUSH7 0x3330B936B2B919 PUSH1 0xC9 SHL PUSH1 0x20 DUP3 ADD MSTORE SWAP5 PUSH2 0x11E3 JUMP JUMPDEST PUSH1 0x40 MLOAD PUSH3 0x461BCD PUSH1 0xE5 SHL DUP2 MSTORE PUSH1 0x20 PUSH1 0x4 DUP3 ADD MSTORE PUSH1 0x1F PUSH1 0x24 DUP3 ADD MSTORE PUSH32 0x41677265656D656E74206E6F742070656E64696E67207369676E617475726500 PUSH1 0x44 DUP3 ADD MSTORE PUSH1 0x64 SWAP1 REVERT JUMPDEST POP CALLER PUSH32 0x0 DUP3 AND EQ PUSH2 0x1181 JUMP JUMPDEST PUSH1 0x8 SWAP2 SWAP3 POP ADD SLOAD AND CALLER EQ DUP2 DUP7 PUSH2 0x1178 JUMP JUMPDEST CALLVALUE PUSH2 0xF53 JUMPI PUSH1 0x20 CALLDATASIZE PUSH1 0x3 NOT ADD SLT PUSH2 0xF53 JUMPI PUSH1 0x4 CALLDATALOAD DUP1 PUSH1 0x0 MSTORE PUSH1 0x0 PUSH1 0x20 MSTORE PUSH2 0x15D3 PUSH1 0x13 PUSH1 0x40 PUSH1 0x0 KECCAK256 ADD SLOAD ISZERO ISZERO PUSH2 0x1C56 JUMP JUMPDEST PUSH1 0x0 MSTORE PUSH1 0x0 PUSH1 0x20 MSTORE PUSH1 0x20 PUSH1 0xFF PUSH1 0x11 PUSH1 0x40 PUSH1 0x0 KECCAK256 ADD SLOAD AND PUSH2 0x15F6 PUSH1 0x40 MLOAD DUP1 SWAP3 PUSH2 0x1C09 JUMP JUMPDEST RETURN JUMPDEST CALLVALUE PUSH2 0xF53 JUMPI PUSH1 0x20 DUP1 PUSH1 0x3 NOT CALLDATASIZE ADD SLT PUSH2 0xF53 JUMPI PUSH1 0x4 CALLDATALOAD PUSH1 0x1 PUSH1 0x1 PUSH1 0xA0 SHL SUB DUP2 AND SWAP1 DUP2 SWAP1 SUB PUSH2 0xF53 JUMPI PUSH1 0x0 MSTORE PUSH1 0x1 SWAP1 PUSH1 0x1 DUP2 MSTORE PUSH1 0x40 PUSH1 0x0 KECCAK256 SWAP2 PUSH1 0x40 MLOAD SWAP2 DUP3 DUP2 DUP6 SLOAD SWAP2 DUP3 DUP2 MSTORE ADD SWAP1 DUP2 SWAP6 PUSH1 0x0 MSTORE DUP3 PUSH1 0x0 KECCAK256 SWAP1 PUSH1 0x0 JUMPDEST DUP2 DUP2 LT PUSH2 0x1698 JUMPI POP POP POP DUP4 PUSH2 0x1660 SWAP2 SUB DUP5 PUSH2 0x1E47 JUMP JUMPDEST PUSH1 0x40 MLOAD SWAP3 DUP2 DUP5 ADD SWAP1 DUP3 DUP6 MSTORE MLOAD DUP1 SWAP2 MSTORE PUSH1 0x40 DUP5 ADD SWAP5 SWAP2 PUSH1 0x0 JUMPDEST DUP3 DUP2 LT PUSH2 0x1685 JUMPI DUP6 DUP8 SUB DUP7 RETURN JUMPDEST DUP4 MLOAD DUP8 MSTORE SWAP6 DUP2 ADD SWAP6 SWAP3 DUP2 ADD SWAP3 DUP5 ADD PUSH2 0x1678 JUMP JUMPDEST DUP3 SLOAD DUP5 MSTORE SWAP3 DUP5 ADD SWAP3 SWAP2 DUP6 ADD SWAP2 DUP6 ADD PUSH2 0x164A JUMP JUMPDEST CALLVALUE PUSH2 0xF53 JUMPI PUSH1 0x0 CALLDATASIZE PUSH1 0x3 NOT ADD SLT PUSH2 0xF53 JUMPI PUSH1 0x40 MLOAD PUSH32 0x0 PUSH1 0x1 PUSH1 0x1 PUSH1 0xA0 SHL SUB AND DUP2 MSTORE PUSH1 0x20 SWAP1 RETURN JUMPDEST CALLVALUE PUSH2 0xF53 JUMPI PUSH1 0x20 DUP1 PUSH1 0x3 NOT CALLDATASIZE ADD SLT PUSH2 0xF53 JUMPI PUSH1 0x4 CALLDATALOAD DUP1 PUSH1 0x0 MSTORE PUSH1 0x0 DUP3 MSTORE PUSH2 0x1720 PUSH1 0x13 PUSH1 0x40 PUSH1 0x0 KECCAK256 ADD SLOAD ISZERO ISZERO PUSH2 0x1C56 JUMP JUMPDEST DUP1 PUSH1 0x0 MSTORE PUSH1 0x0 DUP3 MSTORE PUSH2 0x1756 PUSH1 0x40 PUSH1 0x0 KECCAK256 PUSH1 0x1 DUP1 PUSH1 0xA0 SHL SUB DUP1 PUSH1 0x2 DUP4 ADD SLOAD AND CALLER EQ SWAP2 DUP3 ISZERO PUSH2 0x1841 JUMPI JUMPDEST POP DUP2 ISZERO PUSH2 0x1815 JUMPI JUMPDEST POP PUSH2 0x1F77 JUMP JUMPDEST DUP1 PUSH1 0x0 MSTORE PUSH1 0x0 DUP3 MSTORE PUSH1 0x40 PUSH1 0x0 KECCAK256 PUSH1 0x11 DUP2 ADD DUP1 SLOAD PUSH1 0xFF DUP2 AND PUSH1 0x5 DUP2 LT ISZERO PUSH2 0x110D JUMPI PUSH1 0x2 DUP2 EQ SWAP1 DUP2 ISZERO PUSH2 0x180A JUMPI JUMPDEST POP ISZERO PUSH2 0x17C5 JUMPI PUSH1 0x4 SWAP1 PUSH1 0xFF NOT AND OR SWAP1 SSTORE PUSH1 0x14 TIMESTAMP SWAP2 ADD SSTORE PUSH32 0xB3E4D3F78538D12C2AF01CD812D88BC3D1F80E420BBF1468AD9C451784B6E1D7 PUSH1 0x40 MLOAD SWAP3 TIMESTAMP DUP5 MSTORE CALLER SWAP4 LOG3 STOP JUMPDEST PUSH1 0x40 MLOAD PUSH3 0x461BCD PUSH1 0xE5 SHL DUP2 MSTORE PUSH1 0x4 DUP2 ADD DUP7 SWAP1 MSTORE PUSH1 0x1F PUSH1 0x24 DUP3 ADD MSTORE PUSH32 0x43616E6E6F74207265766F6B6520696E2063757272656E742073746174757300 PUSH1 0x44 DUP3 ADD MSTORE PUSH1 0x64 SWAP1 REVERT JUMPDEST PUSH1 0x1 SWAP2 POP EQ DUP7 PUSH2 0x1782 JUMP JUMPDEST SWAP1 POP PUSH32 0x0 AND CALLER EQ DUP5 PUSH2 0x1750 JUMP JUMPDEST DUP2 SWAP3 POP PUSH1 0x8 ADD SLOAD AND CALLER EQ SWAP1 DUP6 PUSH2 0x1748 JUMP JUMPDEST CALLVALUE PUSH2 0xF53 JUMPI PUSH1 0x60 CALLDATASIZE PUSH1 0x3 NOT ADD SLT PUSH2 0xF53 JUMPI PUSH1 0x1 PUSH1 0x1 PUSH1 0x40 SHL SUB PUSH1 0x4 CALLDATALOAD PUSH1 0x24 CALLDATALOAD DUP3 DUP2 GT PUSH2 0xF53 JUMPI PUSH2 0x1886 SWAP1 CALLDATASIZE SWAP1 PUSH1 0x4 ADD PUSH2 0x1BA9 JUMP JUMPDEST PUSH1 0x44 CALLDATALOAD DUP5 DUP2 GT PUSH2 0xF53 JUMPI PUSH2 0x189E SWAP1 CALLDATASIZE SWAP1 PUSH1 0x4 ADD PUSH2 0x1BA9 JUMP JUMPDEST SWAP1 PUSH2 0x18D3 CALLER PUSH32 0x0 PUSH1 0x1 PUSH1 0x1 PUSH1 0xA0 SHL SUB AND EQ PUSH2 0x1EB0 JUMP JUMPDEST DUP5 PUSH1 0x0 MSTORE PUSH1 0x20 SWAP6 PUSH1 0x0 DUP8 MSTORE PUSH2 0x18F1 PUSH1 0x13 PUSH1 0x40 PUSH1 0x0 KECCAK256 ADD SLOAD ISZERO ISZERO PUSH2 0x1C56 JUMP JUMPDEST DUP6 PUSH1 0x0 MSTORE PUSH1 0x0 DUP8 MSTORE PUSH1 0x40 PUSH1 0x0 KECCAK256 SWAP1 PUSH1 0xF DUP3 ADD DUP2 DUP7 GT PUSH2 0x9ED JUMPI PUSH2 0x191E DUP7 PUSH2 0x1918 DUP4 SLOAD PUSH2 0x1D26 JUMP JUMPDEST DUP4 PUSH2 0x1EED JUMP JUMPDEST PUSH1 0x0 DUP7 PUSH1 0x1F DUP2 GT PUSH1 0x1 EQ PUSH2 0x1A57 JUMPI DUP1 PUSH2 0x193F SWAP3 PUSH1 0x0 SWAP2 PUSH2 0x1A4C JUMPI JUMPDEST POP PUSH2 0x1F43 JUMP JUMPDEST SWAP1 SSTORE JUMPDEST PUSH1 0x10 DUP3 ADD SWAP1 DUP5 GT PUSH2 0x9ED JUMPI PUSH2 0x195B DUP5 PUSH2 0x1918 DUP4 SLOAD PUSH2 0x1D26 JUMP JUMPDEST PUSH1 0x0 PUSH1 0x1F DUP6 GT PUSH1 0x1 EQ PUSH2 0x19D0 JUMPI SWAP2 PUSH1 0x0 DUP1 MLOAD PUSH1 0x20 PUSH2 0x1FED DUP4 CODECOPY DUP2 MLOAD SWAP2 MSTORE SWAP8 SWAP9 SWAP4 SWAP2 PUSH2 0x1993 DUP7 DUP1 PUSH2 0x19C0 SWAP9 SWAP7 PUSH1 0x0 SWAP2 PUSH2 0x19C5 JUMPI POP PUSH2 0x1F43 JUMP JUMPDEST SWAP1 SSTORE JUMPDEST PUSH1 0x14 TIMESTAMP SWAP2 ADD SSTORE PUSH2 0x19B3 PUSH1 0x40 MLOAD SWAP7 DUP8 SWAP7 PUSH1 0x40 DUP9 MSTORE PUSH1 0x40 DUP9 ADD SWAP2 PUSH2 0x1F56 JUMP JUMPDEST SWAP3 DUP6 DUP5 SUB SWAP1 DUP7 ADD MSTORE PUSH2 0x1F56 JUMP JUMPDEST SUB SWAP1 LOG2 STOP JUMPDEST SWAP1 POP DUP6 ADD CALLDATALOAD DUP14 PUSH2 0x1939 JUMP JUMPDEST PUSH1 0x1F NOT DUP6 AND SWAP1 DUP3 PUSH1 0x0 MSTORE DUP10 PUSH1 0x0 KECCAK256 SWAP2 PUSH1 0x0 JUMPDEST DUP2 DUP2 LT PUSH2 0x1A35 JUMPI POP SWAP2 PUSH1 0x0 DUP1 MLOAD PUSH1 0x20 PUSH2 0x1FED DUP4 CODECOPY DUP2 MLOAD SWAP2 MSTORE SWAP10 SWAP11 SWAP6 SWAP4 SWAP2 DUP8 PUSH2 0x19C0 SWAP9 SWAP7 SWAP5 LT PUSH2 0x1A1B JUMPI JUMPDEST POP POP PUSH1 0x1 DUP5 DUP2 SHL ADD SWAP1 SSTORE PUSH2 0x1996 JUMP JUMPDEST DUP5 ADD CALLDATALOAD PUSH1 0x0 NOT PUSH1 0x3 DUP8 SWAP1 SHL PUSH1 0xF8 AND SHR NOT AND SWAP1 SSTORE DUP11 DUP1 PUSH2 0x1A0C JUMP JUMPDEST SWAP2 SWAP3 DUP12 PUSH1 0x1 DUP2 SWAP3 DUP7 DUP11 ADD CALLDATALOAD DUP2 SSTORE ADD SWAP5 ADD SWAP3 ADD PUSH2 0x19E2 JUMP JUMPDEST SWAP1 POP DUP10 ADD CALLDATALOAD DUP13 PUSH2 0x1939 JUMP JUMPDEST POP PUSH1 0x1F NOT DUP8 AND SWAP1 DUP3 PUSH1 0x0 MSTORE DUP8 DUP12 PUSH1 0x0 KECCAK256 SWAP3 PUSH1 0x0 JUMPDEST DUP14 DUP13 DUP4 DUP4 LT PUSH2 0x1AA6 JUMPI POP POP POP LT PUSH2 0x1A8C JUMPI JUMPDEST POP POP PUSH1 0x1 DUP7 DUP2 SHL ADD SWAP1 SSTORE PUSH2 0x1942 JUMP JUMPDEST DUP9 ADD CALLDATALOAD PUSH1 0x0 NOT PUSH1 0x3 DUP10 SWAP1 SHL PUSH1 0xF8 AND SHR NOT AND SWAP1 SSTORE DUP10 DUP1 PUSH2 0x1A7D JUMP JUMPDEST DUP6 ADD CALLDATALOAD DUP7 SSTORE PUSH1 0x1 SWAP1 SWAP6 ADD SWAP5 SWAP4 DUP5 ADD SWAP4 DUP12 SWAP4 POP ADD PUSH2 0x1A6B JUMP JUMPDEST CALLVALUE PUSH2 0xF53 JUMPI PUSH1 0x20 PUSH2 0x1B24 PUSH2 0x1AD1 CALLDATASIZE PUSH2 0x1BD6 JUMP JUMPDEST SWAP3 SWAP2 DUP1 PUSH1 0x0 MSTORE PUSH1 0x0 DUP6 MSTORE PUSH2 0x1AEE PUSH1 0x13 PUSH1 0x40 PUSH1 0x0 KECCAK256 ADD SLOAD ISZERO ISZERO PUSH2 0x1C56 JUMP JUMPDEST PUSH1 0x0 MSTORE PUSH1 0x0 DUP5 MSTORE PUSH2 0x1B0F PUSH2 0x1B16 PUSH1 0xF PUSH1 0x40 PUSH1 0x0 KECCAK256 ADD PUSH1 0x40 MLOAD SWAP3 DUP4 DUP1 SWAP3 PUSH2 0x1D60 JUMP JUMPDEST SUB DUP3 PUSH2 0x1E47 JUMP JUMPDEST DUP5 DUP2 MLOAD SWAP2 ADD KECCAK256 SWAP3 CALLDATASIZE SWAP2 PUSH2 0x1E6A JUMP JUMPDEST DUP3 DUP2 MLOAD SWAP2 ADD KECCAK256 EQ PUSH1 0x40 MLOAD SWAP1 DUP2 MSTORE RETURN JUMPDEST CALLVALUE PUSH2 0xF53 JUMPI PUSH1 0x0 CALLDATASIZE PUSH1 0x3 NOT ADD SLT PUSH2 0xF53 JUMPI PUSH1 0x20 PUSH1 0x2 SLOAD PUSH1 0x40 MLOAD SWAP1 DUP2 MSTORE RETURN JUMPDEST CALLVALUE PUSH2 0xF53 JUMPI PUSH1 0x40 CALLDATASIZE PUSH1 0x3 NOT ADD SLT PUSH2 0xF53 JUMPI PUSH1 0x24 CALLDATALOAD PUSH1 0x4 CALLDATALOAD PUSH1 0x1 PUSH1 0x1 PUSH1 0xA0 SHL SUB DUP3 AND DUP3 SUB PUSH2 0xF53 JUMPI PUSH1 0x20 SWAP2 DUP2 PUSH2 0x1B9F SWAP3 PUSH1 0x0 MSTORE PUSH1 0x0 DUP5 MSTORE PUSH2 0x1B9A PUSH1 0x13 PUSH1 0x40 PUSH1 0x0 KECCAK256 ADD SLOAD ISZERO ISZERO PUSH2 0x1C56 JUMP JUMPDEST PUSH2 0x1CCF JUMP JUMPDEST PUSH1 0x40 MLOAD SWAP1 ISZERO ISZERO DUP2 MSTORE RETURN JUMPDEST SWAP2 DUP2 PUSH1 0x1F DUP5 ADD SLT ISZERO PUSH2 0xF53 JUMPI DUP3 CALLDATALOAD SWAP2 PUSH1 0x1 PUSH1 0x1 PUSH1 0x40 SHL SUB DUP4 GT PUSH2 0xF53 JUMPI PUSH1 0x20 DUP4 DUP2 DUP7 ADD SWAP6 ADD ADD GT PUSH2 0xF53 JUMPI JUMP JUMPDEST SWAP1 PUSH1 0x40 PUSH1 0x3 NOT DUP4 ADD SLT PUSH2 0xF53 JUMPI PUSH1 0x4 CALLDATALOAD SWAP2 PUSH1 0x24 CALLDATALOAD SWAP1 PUSH1 0x1 PUSH1 0x1 PUSH1 0x40 SHL SUB DUP3 GT PUSH2 0xF53 JUMPI PUSH2 0x1C05 SWAP2 PUSH1 0x4 ADD PUSH2 0x1BA9 JUMP JUMPDEST SWAP1 SWAP2 JUMP JUMPDEST SWAP1 PUSH1 0x5 DUP3 LT ISZERO PUSH2 0x110D JUMPI MSTORE JUMP JUMPDEST SWAP2 SWAP1 DUP3 MLOAD SWAP3 DUP4 DUP3 MSTORE PUSH1 0x0 JUMPDEST DUP5 DUP2 LT PUSH2 0x1C42 JUMPI POP POP DUP3 PUSH1 0x0 PUSH1 0x20 DUP1 SWAP5 SWAP6 DUP5 ADD ADD MSTORE PUSH1 0x1F DUP1 NOT SWAP2 ADD AND ADD ADD SWAP1 JUMP JUMPDEST PUSH1 0x20 DUP2 DUP4 ADD DUP2 ADD MLOAD DUP5 DUP4 ADD DUP3 ADD MSTORE ADD PUSH2 0x1C21 JUMP JUMPDEST ISZERO PUSH2 0x1C5D JUMPI JUMP JUMPDEST PUSH1 0x40 MLOAD PUSH3 0x461BCD PUSH1 0xE5 SHL DUP2 MSTORE PUSH1 0x20 PUSH1 0x4 DUP3 ADD MSTORE PUSH1 0x18 PUSH1 0x24 DUP3 ADD MSTORE PUSH24 0x1059DC99595B595B9D08191BD95CC81B9BDD08195E1A5CDD PUSH1 0x42 SHL PUSH1 0x44 DUP3 ADD MSTORE PUSH1 0x64 SWAP1 REVERT JUMPDEST DUP1 SLOAD DUP3 LT ISZERO PUSH2 0x1CB9 JUMPI PUSH1 0x0 MSTORE PUSH1 0x20 PUSH1 0x0 KECCAK256 SWAP1 PUSH1 0x2 SHL ADD SWAP1 PUSH1 0x0 SWAP1 JUMP JUMPDEST PUSH4 0x4E487B71 PUSH1 0xE0 SHL PUSH1 0x0 MSTORE PUSH1 0x32 PUSH1 0x4 MSTORE PUSH1 0x24 PUSH1 0x0 REVERT JUMPDEST PUSH1 0x0 MSTORE PUSH1 0x0 PUSH1 0x20 MSTORE PUSH1 0x40 PUSH1 0x0 KECCAK256 SWAP1 PUSH1 0x12 PUSH1 0x0 SWAP3 ADD DUP1 SLOAD SWAP3 JUMPDEST DUP4 DUP2 LT PUSH2 0x1CF7 JUMPI POP POP POP POP PUSH1 0x0 SWAP1 JUMP JUMPDEST PUSH2 0x1D01 DUP2 DUP4 PUSH2 0x1C9D JUMP JUMPDEST POP SLOAD PUSH1 0x1 PUSH1 0x1 PUSH1 0xA0 SHL SUB DUP5 DUP2 AND SWAP2 AND EQ PUSH2 0x1D1D JUMPI PUSH1 0x1 ADD PUSH2 0x1CE7 JUMP JUMPDEST POP POP POP POP PUSH1 0x1 SWAP1 JUMP JUMPDEST SWAP1 PUSH1 0x1 DUP3 DUP2 SHR SWAP3 AND DUP1 ISZERO PUSH2 0x1D56 JUMPI JUMPDEST PUSH1 0x20 DUP4 LT EQ PUSH2 0x1D40 JUMPI JUMP JUMPDEST PUSH4 0x4E487B71 PUSH1 0xE0 SHL PUSH1 0x0 MSTORE PUSH1 0x22 PUSH1 0x4 MSTORE PUSH1 0x24 PUSH1 0x0 REVERT JUMPDEST SWAP2 PUSH1 0x7F AND SWAP2 PUSH2 0x1D35 JUMP JUMPDEST DUP1 SLOAD PUSH1 0x0 SWAP4 SWAP3 PUSH2 0x1D6F DUP3 PUSH2 0x1D26 JUMP JUMPDEST SWAP2 DUP3 DUP3 MSTORE PUSH1 0x20 SWAP4 PUSH1 0x1 SWAP2 PUSH1 0x1 DUP2 AND SWAP1 DUP2 PUSH1 0x0 EQ PUSH2 0x1DD7 JUMPI POP PUSH1 0x1 EQ PUSH2 0x1D96 JUMPI JUMPDEST POP POP POP POP POP JUMP JUMPDEST SWAP1 SWAP4 SWAP5 SWAP6 POP PUSH1 0x0 SWAP3 SWAP2 SWAP3 MSTORE DUP4 PUSH1 0x0 KECCAK256 SWAP3 DUP5 PUSH1 0x0 SWAP5 JUMPDEST DUP4 DUP7 LT PUSH2 0x1DC3 JUMPI POP POP POP POP ADD ADD SWAP1 CODESIZE DUP1 DUP1 DUP1 DUP1 PUSH2 0x1D8F JUMP JUMPDEST DUP1 SLOAD DUP6 DUP8 ADD DUP4 ADD MSTORE SWAP5 ADD SWAP4 DUP6 SWAP1 DUP3 ADD PUSH2 0x1DAB JUMP JUMPDEST PUSH1 0xFF NOT AND DUP7 DUP6 ADD MSTORE POP POP POP SWAP1 ISZERO ISZERO PUSH1 0x5 SHL ADD ADD SWAP2 POP CODESIZE DUP1 DUP1 DUP1 DUP1 PUSH2 0x1D8F JUMP JUMPDEST PUSH1 0x80 DUP2 ADD SWAP1 DUP2 LT PUSH1 0x1 PUSH1 0x1 PUSH1 0x40 SHL SUB DUP3 GT OR PUSH2 0x9ED JUMPI PUSH1 0x40 MSTORE JUMP JUMPDEST PUSH1 0x40 DUP2 ADD SWAP1 DUP2 LT PUSH1 0x1 PUSH1 0x1 PUSH1 0x40 SHL SUB DUP3 GT OR PUSH2 0x9ED JUMPI PUSH1 0x40 MSTORE JUMP JUMPDEST PUSH1 0x20 DUP2 ADD SWAP1 DUP2 LT PUSH1 0x1 PUSH1 0x1 PUSH1 0x40 SHL SUB DUP3 GT OR PUSH2 0x9ED JUMPI PUSH1 0x40 MSTORE JUMP JUMPDEST PUSH1 0x1F SWAP1 SWAP2 ADD PUSH1 0x1F NOT AND DUP2 ADD SWAP1 PUSH1 0x1 PUSH1 0x1 PUSH1 0x40 SHL SUB DUP3 GT SWAP1 DUP3 LT OR PUSH2 0x9ED JUMPI PUSH1 0x40 MSTORE JUMP JUMPDEST SWAP2 SWAP3 SWAP2 PUSH1 0x1 PUSH1 0x1 PUSH1 0x40 SHL SUB DUP3 GT PUSH2 0x9ED JUMPI PUSH1 0x40 MLOAD SWAP2 PUSH2 0x1E93 PUSH1 0x1F DUP3 ADD PUSH1 0x1F NOT AND PUSH1 0x20 ADD DUP5 PUSH2 0x1E47 JUMP JUMPDEST DUP3 SWAP5 DUP2 DUP5 MSTORE DUP2 DUP4 ADD GT PUSH2 0xF53 JUMPI DUP3 DUP2 PUSH1 0x20 SWAP4 DUP5 PUSH1 0x0 SWAP7 ADD CALLDATACOPY ADD ADD MSTORE JUMP JUMPDEST ISZERO PUSH2 0x1EB7 JUMPI JUMP JUMPDEST PUSH1 0x40 MLOAD PUSH3 0x461BCD PUSH1 0xE5 SHL DUP2 MSTORE PUSH1 0x20 PUSH1 0x4 DUP3 ADD MSTORE PUSH1 0xE PUSH1 0x24 DUP3 ADD MSTORE PUSH14 0x139BDD08185D5D1A1BDC9A5E9959 PUSH1 0x92 SHL PUSH1 0x44 DUP3 ADD MSTORE PUSH1 0x64 SWAP1 REVERT JUMPDEST SWAP1 PUSH1 0x1F DUP2 GT PUSH2 0x1EFB JUMPI POP POP POP JUMP JUMPDEST PUSH1 0x0 SWAP2 PUSH1 0x0 MSTORE PUSH1 0x20 PUSH1 0x0 KECCAK256 SWAP1 PUSH1 0x20 PUSH1 0x1F DUP6 ADD PUSH1 0x5 SHR DUP4 ADD SWAP5 LT PUSH2 0x1F39 JUMPI JUMPDEST PUSH1 0x1F ADD PUSH1 0x5 SHR ADD SWAP2 JUMPDEST DUP3 DUP2 LT PUSH2 0x1F2E JUMPI POP POP POP JUMP JUMPDEST DUP2 DUP2 SSTORE PUSH1 0x1 ADD PUSH2 0x1F22 JUMP JUMPDEST SWAP1 SWAP3 POP DUP3 SWAP1 PUSH2 0x1F19 JUMP JUMPDEST DUP2 PUSH1 0x1 SHL SWAP2 PUSH1 0x0 NOT SWAP1 PUSH1 0x3 SHL SHR NOT AND OR SWAP1 JUMP JUMPDEST SWAP1 DUP1 PUSH1 0x20 SWAP4 SWAP3 DUP2 DUP5 MSTORE DUP5 DUP5 ADD CALLDATACOPY PUSH1 0x0 DUP3 DUP3 ADD DUP5 ADD MSTORE PUSH1 0x1F ADD PUSH1 0x1F NOT AND ADD ADD SWAP1 JUMP JUMPDEST ISZERO PUSH2 0x1F7E JUMPI JUMP JUMPDEST PUSH1 0x40 MLOAD PUSH3 0x461BCD PUSH1 0xE5 SHL DUP2 MSTORE PUSH1 0x20 PUSH1 0x4 DUP3 ADD MSTORE PUSH1 0x1D PUSH1 0x24 DUP3 ADD MSTORE PUSH32 0x4E6F74206120706172747920746F20746869732061677265656D656E74000000 PUSH1 0x44 DUP3 ADD MSTORE PUSH1 0x64 SWAP1 REVERT JUMPDEST DUP1 SLOAD SWAP1 PUSH1 0x1 PUSH1 0x40 SHL DUP3 LT ISZERO PUSH2 0x9ED JUMPI PUSH1 0x1 DUP3 ADD DUP1 DUP3 SSTORE DUP3 LT ISZERO PUSH2 0x1CB9 JUMPI PUSH1 0x0 MSTORE PUSH1 0x20 PUSH1 0x0 KECCAK256 ADD SSTORE JUMP INVALID 0x22 0x2C BALANCE 0xED SSTORE DUP5 0x2B 0xCD 0xE3 0xC3 SWAP12 BLOBHASH DUP8 JUMPDEST 0xAE ADDRESS PUSH11 0xF952DC94D514593AC61A4B 0xA7 0xCE 0xE PUSH11 0x58554C3C761C10BEDF59A1 0x29 CALLDATALOAD 0xE8 0xA8 MOD LOG0 PUSH27 0x7F9157F8A7A59169F215E22DEC3A26469706673582212200CE744 SHR CHAINID 0xBA SAR 0xCC POP 0xE9 0xF9 PUSH15 0x1C061F9571528333608AA79845948 PUSH9 0xF6B4B90264736F6C63 NUMBER STOP ADDMOD XOR STOP CALLER "},"methodIdentifiers":{"createAgreement(string,string,address,string,uint32,uint8,string,string,address,string,uint32,uint8,uint64,uint64,string)":"f5f70808","getAgreement(bytes32)":"f42eb765","getAgreementStatus(bytes32)":"cbc3a796","getUserAgreements(address)":"adb9cae6","hasSignedAgreement(bytes32,address)":"2a618959","owner()":"8da5cb5b","revokeAgreement(bytes32)":"79d0b1fc","signAgreement(bytes32,string)":"d8b498c3","totalAgreements()":"335195a6","updateDocument(bytes32,string,string)":"702f3dae","verifyDocumentCid(bytes32,string)":"44c73dfc"}}}}}