{
  "_format": "hh-sol-artifact-1",
  "contractName": "LandAgreementRegistry",
  "sourceName": "contracts/LandAgreementRegistry.sol",
  "abi": [
    {
      "inputs": [],
      "stateMutability": "nonpayable",
      "type": "constructor"
    },
    {
      "anonymous": false,
      "inputs": [
        {
          "indexed": true,
          "internalType": "bytes32",
          "name": "agreementId",
          "type": "bytes32"
        },
        {
          "indexed": true,
          "internalType": "address",
          "name": "creator",
          "type": "address"
        },
        {
          "indexed": false,
          "internalType": "string",
          "name": "farmer1UserId",
          "type": "string"
        },
        {
          "indexed": false,
          "internalType": "string",
          "name": "farmer2UserId",
          "type": "string"
        },
        {
          "indexed": false,
          "internalType": "uint256",
          "name": "createdAt",
          "type": "uint256"
        }
      ],
      "name": "AgreementCreated",
      "type": "event"
    },
    {
      "anonymous": false,
      "inputs": [
        {
          "indexed": true,
          "internalType": "bytes32",
          "name": "agreementId",
          "type": "bytes32"
        },
        {
          "indexed": true,
          "internalType": "address",
          "name": "revokedBy",
          "type": "address"
        },
        {
          "indexed": false,
          "internalType": "uint256",
          "name": "revokedAt",
          "type": "uint256"
        }
      ],
      "name": "AgreementRevoked",
      "type": "event"
    },
    {
      "anonymous": false,
      "inputs": [
        {
          "indexed": true,
          "internalType": "bytes32",
          "name": "agreementId",
          "type": "bytes32"
        },
        {
          "indexed": true,
          "internalType": "address",
          "name": "signer",
          "type": "address"
        },
        {
          "indexed": false,
          "internalType": "string",
          "name": "signerRole",
          "type": "string"
        },
        {
          "indexed": false,
          "internalType": "enum LandAgreementRegistry.AgreementStatus",
          "name": "newStatus",
          "type": "uint8"
        }
      ],
      "name": "AgreementSigned",
      "type": "event"
    },
    {
      "anonymous": false,
      "inputs": [
        {
          "indexed": true,
          "internalType": "bytes32",
          "name": "agreementId",
          "type": "bytes32"
        },
        {
          "indexed": false,
          "internalType": "string",
          "name": "documentCid",
          "type": "string"
        },
        {
          "indexed": false,
          "internalType": "string",
          "name": "metadataCid",
          "type": "string"
        }
      ],
      "name": "DocumentUpdated",
      "type": "event"
    },
    {
      "inputs": [
        {
          "internalType": "string",
          "name": "farmer1UserId",
          "type": "string"
        },
        {
          "internalType": "string",
          "name": "farmer1Name",
          "type": "string"
        },
        {
          "internalType": "address",
          "name": "farmer1Address",
          "type": "address"
        },
        {
          "internalType": "string",
          "name": "farmer1Survey",
          "type": "string"
        },
        {
          "internalType": "uint32",
          "name": "farmer1Centiacres",
          "type": "uint32"
        },
        {
          "internalType": "uint8",
          "name": "farmer1SharePercent",
          "type": "uint8"
        },
        {
          "internalType": "string",
          "name": "farmer2UserId",
          "type": "string"
        },
        {
          "internalType": "string",
          "name": "farmer2Name",
          "type": "string"
        },
        {
          "internalType": "address",
          "name": "farmer2Address",
          "type": "address"
        },
        {
          "internalType": "string",
          "name": "farmer2Survey",
          "type": "string"
        },
        {
          "internalType": "uint32",
          "name": "farmer2Centiacres",
          "type": "uint32"
        },
        {
          "internalType": "uint8",
          "name": "farmer2SharePercent",
          "type": "uint8"
        },
        {
          "internalType": "uint64",
          "name": "startTs",
          "type": "uint64"
        },
        {
          "internalType": "uint64",
          "name": "endTs",
          "type": "uint64"
        },
        {
          "internalType": "string",
          "name": "documentCid",
          "type": "string"
        }
      ],
      "name": "createAgreement",
      "outputs": [
        {
          "internalType": "bytes32",
          "name": "agreementId",
          "type": "bytes32"
        }
      ],
      "stateMutability": "nonpayable",
      "type": "function"
    },
    {
      "inputs": [
        {
          "internalType": "bytes32",
          "name": "agreementId",
          "type": "bytes32"
        }
      ],
      "name": "getAgreement",
      "outputs": [
        {
          "internalType": "bytes32",
          "name": "id",
          "type": "bytes32"
        },
        {
          "internalType": "address",
          "name": "creator",
          "type": "address"
        },
        {
          "internalType": "string",
          "name": "farmer1Name",
          "type": "string"
        },
        {
          "internalType": "string",
          "name": "farmer1UserId",
          "type": "string"
        },
        {
          "internalType": "uint32",
          "name": "farmer1Centiacres",
          "type": "uint32"
        },
        {
          "internalType": "uint8",
          "name": "farmer1Share",
          "type": "uint8"
        },
        {
          "internalType": "string",
          "name": "farmer2Name",
          "type": "string"
        },
        {
          "internalType": "string",
          "name": "farmer2UserId",
          "type": "string"
        },
        {
          "internalType": "uint32",
          "name": "farmer2Centiacres",
          "type": "uint32"
        },
        {
          "internalType": "uint8",
          "name": "farmer2Share",
          "type": "uint8"
        },
        {
          "internalType": "string",
          "name": "documentCid",
          "type": "string"
        },
        {
          "internalType": "uint8",
          "name": "status",
          "type": "uint8"
        },
        {
          "internalType": "uint256",
          "name": "signatureCount",
          "type": "uint256"
        },
        {
          "internalType": "uint256",
          "name": "createdAt",
          "type": "uint256"
        }
      ],
      "stateMutability": "view",
      "type": "function"
    },
    {
      "inputs": [
        {
          "internalType": "bytes32",
          "name": "agreementId",
          "type": "bytes32"
        }
      ],
      "name": "getAgreementStatus",
      "outputs": [
        {
          "internalType": "enum LandAgreementRegistry.AgreementStatus",
          "name": "",
          "type": "uint8"
        }
      ],
      "stateMutability": "view",
      "type": "function"
    },
    {
      "inputs": [
        {
          "internalType": "address",
          "name": "user",
          "type": "address"
        }
      ],
      "name": "getUserAgreements",
      "outputs": [
        {
          "internalType": "bytes32[]",
          "name": "",
          "type": "bytes32[]"
        }
      ],
      "stateMutability": "view",
      "type": "function"
    },
    {
      "inputs": [
        {
          "internalType": "bytes32",
          "name": "agreementId",
          "type": "bytes32"
        },
        {
          "internalType": "address",
          "name": "user",
          "type": "address"
        }
      ],
      "name": "hasSignedAgreement",
      "outputs": [
        {
          "internalType": "bool",
          "name": "",
          "type": "bool"
        }
      ],
      "stateMutability": "view",
      "type": "function"
    },
    {
      "inputs": [],
      "name": "owner",
      "outputs": [
        {
          "internalType": "address",
          "name": "",
          "type": "address"
        }
      ],
      "stateMutability": "view",
      "type": "function"
    },
    {
      "inputs": [
        {
          "internalType": "bytes32",
          "name": "agreementId",
          "type": "bytes32"
        }
      ],
      "name": "revokeAgreement",
      "outputs": [],
      "stateMutability": "nonpayable",
      "type": "function"
    },
    {
      "inputs": [
        {
          "internalType": "bytes32",
          "name": "agreementId",
          "type": "bytes32"
        },
        {
          "internalType": "address",
          "name": "farmerAddress",
          "type": "address"
        },
        {
          "internalType": "string",
          "name": "signerName",
          "type": "string"
        }
      ],
      "name": "signAgreement",
      "outputs": [],
      "stateMutability": "nonpayable",
      "type": "function"
    },
    {
      "inputs": [],
      "name": "totalAgreements",
      "outputs": [
        {
          "internalType": "uint256",
          "name": "",
          "type": "uint256"
        }
      ],
      "stateMutability": "view",
      "type": "function"
    },
    {
      "inputs": [
        {
          "internalType": "bytes32",
          "name": "agreementId",
          "type": "bytes32"
        },
        {
          "internalType": "string",
          "name": "documentCid",
          "type": "string"
        },
        {
          "internalType": "string",
          "name": "metadataCid",
          "type": "string"
        }
      ],
      "name": "updateDocument",
      "outputs": [],
      "stateMutability": "nonpayable",
      "type": "function"
    },
    {
      "inputs": [
        {
          "internalType": "bytes32",
          "name": "agreementId",
          "type": "bytes32"
        },
        {
          "internalType": "string",
          "name": "cid",
          "type": "string"
        }
      ],
      "name": "verifyDocumentCid",
      "outputs": [
        {
          "internalType": "bool",
          "name": "",
          "type": "bool"
        }
      ],
      "stateMutability": "view",
      "type": "function"
    }
  ],
  "bytecode": "0x60a0806040523461003f573360805261214b908161004582396080518181816102660152818161167c015281816117b80152818161195301526119df0152f35b600080fdfe610280604052600436101561001357600080fd5b60003560e01c80632a61895914611caf578063335195a614611c9157806344c73dfc14611bf8578063702f3dae1461198c57806379d0b1fc146117e75780638da5cb5b146117a2578063adb9cae6146116ef578063c6941e2214611178578063cbc3a79614611123578063f42eb76514610f585763f5f708081461009657600080fd5b34610f53576101e0366003190112610f53576004356001600160401b038111610f53576100c7903690600401611d11565b61024052610200526024356001600160401b038111610f53576100ee903690600401611d11565b610100526044356101c08190526001600160a01b0381169003610f53576064356001600160401b038111610f535761012a903690600401611d11565b909160843563ffffffff81168103610f535760a4359060ff82168203610f535760c4356001600160401b038111610f5357610169903690600401611d11565b610220526102605260e4356001600160401b038111610f5357610190903690600401611d11565b610104356101e081905290969194906001600160a01b0381169003610f53576001600160401b036101243511610f53576101d03661012435600401611d11565b6101605261012052610144356101405263ffffffff61014051166101405103610f5357610164356101a05260ff6101a051166101a05103610f5357610184356101808190526001600160401b0381169003610f53576101a4356001600160401b0381169003610f53576001600160401b036101c43511610f535761025a366101c435600401611d11565b60e05260a052610294337f00000000000000000000000000000000000000000000000000000000000000006001600160a01b031614611fe5565b60ff6101a0511660ff85160160ff81116109515760ff6064911603610f155763ffffffff8316151580610f03575b15610ecb57610180516001600160401b036101a435811691161015610e95576101e0516101c0516001600160a01b03908116911614610e5457604051602081019061024051610200518337610345604082610240518101602081016000815261022051906102605190376102205101426020820152036020810184520182611f7c565b51902060c05260c0516000526000602052601360406000200154610e165760c051600081815260208190526040902060808190529081556001810180546001600160a01b031990811633179091556101c051600290920180549091166001600160a01b0392909216919091179055610100516001600160401b03106109ed576103e5610100516103da60036080510154611e5b565b600360805101612022565b600090601f6101005111600114610d99576104129160009161010051610d8e575b50506101005190612078565b600360805101555b610240516001600160401b03106109ed5761044c6102405161044160046080510154611e5b565b600460805101612022565b6000601f6102405111600114610cfa57916104a063ffffffff9261048460ff969560009061024051610cec575b506102405190612078565b600460805101555b6040519761049989611f2b565b3691611f9f565b86526040516104ae81611f61565b600081526020870152166040850152166060830152815180519093906001600160401b0381116109ed576104f6816104eb60056080510154611e5b565b600560805101612022565b6020601f8211600114610c7957819061051b93949596600092610a03575b5050612078565b600560805101555b602083015180519093906001600160401b0381116109ed576105598161054e60066080510154611e5b565b600660805101612022565b6020601f8211600114610c0657819061057d93949596600092610a03575050612078565b600660805101555b6007608051019063ffffffff604082015116825491606060ff60201b91015160201b169164ffffffffff19161717905560086080510160018060a01b036101e0511660018060a01b031982541617905560018060401b0381116109ed57610600816105f560096080510154611e5b565b600960805101612022565b600091601f8211600114610b95576106219260009183610b8a575050612078565b600960805101555b610220516001600160401b03106109ed5761065b61022051610650600a6080510154611e5b565b600a60805101612022565b6000601f6102205111600114610b08576106869060009061022051610afa575b506102205190612078565b600a60805101555b60405161069a81611f2b565b6106ab366101605161012051611f9f565b81526040516106b981611f61565b6000815260208201526101405163ffffffff1660408201526101a05160ff16606082015280518051906001600160401b0382116109ed5761070e82610703600b6080510154611e5b565b600b60805101612022565b602090601f8311600114610a8457610730929160009183610a03575050612078565b600b60805101555b60208101518051906001600160401b0382116109ed5761076c82610761600c6080510154611e5b565b600c60805101612022565b602090601f8311600114610a0e5761078e929160009183610a03575050612078565b600c60805101555b608051604082810151600d8301805460609095015160ff60201b60209190911b1663ffffffff90921664ffffffffff199095169490941717909255600e01805461018051600160401b600160801b036101a43590941b939093166001600160401b039384166001600160801b03199092169190911717905560e051116109ed5761083660e05161082b600f6080510154611e5b565b600f60805101612022565b6000601f60e051116001146109745761085e9060009060e051610967575b5060e05190612078565b600f60805101555b601160805101600160ff198254161790554260136080510155426014608051015560018060a01b036101c0511660005260016020526108ab60c05160406000206120ac565b60018060a01b036101e0511660005260016020526108cf60c05160406000206120ac565b600254600019811461095157600101600255604051606081526109146108ff60608301610240516102005161208b565b8281036020840152610220516102605161208b565b4260408301527fa3c2d4ef9bfeb4d857574f1a496138ddccba145c6b44880725e3ff94606dfb5433928060c051930390a3602060405160c0518152f35b634e487b7160e01b600052601160045260246000fd5b905060a051013538610854565b601f1960e0511690600f6080510160005260206000209160005b8181106109d3575060e051116109b5575b5050600160e051811b01600f6080510155610866565b60001960f860e05160031b161c199060a0510135169055388061099f565b91926020600181928660a05101358155019401920161098e565b634e487b7160e01b600052604160045260246000fd5b015190503880610514565b9190600c608051016000526020600020906000935b601f1984168510610a69576001945083601f19811610610a50575b505050811b01600c6080510155610796565b015160001960f88460031b161c19169055388080610a3e565b81810151835560209485019460019093019290910190610a23565b9190600b608051016000526020600020906000935b601f1984168510610adf576001945083601f19811610610ac6575b505050811b01600b6080510155610738565b015160001960f88460031b161c19169055388080610ab4565b81810151835560209485019460019093019290910190610a99565b90506102605101353861067b565b600a6080510160005260206000209060005b61022051601f19168110610b6f575061022051601f19811610610b4f575b5050600161022051811b01600a608051015561068e565b60001960f86102205160031b161c19906102605101351690553880610b38565b90916020600181928561026051013581550193019101610b1a565b013590503880610514565b60096080510160005260206000209060005b601f1984168110610bee575060019383601f19811610610bd4575b505050811b0160096080510155610629565b0135600019600384901b60f8161c19169055388080610bc2565b84820135835560209485019460019093019201610ba7565b60066080510160005260206000209060005b601f1984168110610c61575060019394959683601f19811610610c48575b505050811b0160066080510155610585565b015160001960f88460031b161c19169055388080610c36565b9091602060018192858b015181550193019101610c18565b60056080510160005260206000209060005b601f1984168110610cd4575060019394959683601f19811610610cbb575b505050811b0160056080510155610523565b015160001960f88460031b161c19169055388080610ca9565b9091602060018192858b015181550193019101610c8b565b905061020051013538610479565b60046080510160005260206000209060005b61024051601f19168110610d73575063ffffffff9260ff9594926104a09261024051601f19610240511610610d53575b5050600161024051811b016004608051015561048c565b60001960f86102405160031b161c19906102005101351690553880610d3c565b90916020600181928561020051013581550193019101610d0c565b013590503880610406565b60036080510160005260206000209160005b61010051601f19168110610dfe575061010051601f19811610610de1575b505050600161010051811b016003608051015561041a565b60001960f86101005160031b161c19910135169055388080610dc9565b90926020600181928686013581550194019101610dab565b60405162461bcd60e51b815260206004820152601660248201527520b3b932b2b6b2b73a1024a21031b7b63634b9b4b7b760511b6044820152606490fd5b60405162461bcd60e51b815260206004820152601960248201527811985c9b595c9cc81b5d5cdd08189948191a5999995c995b9d603a1b6044820152606490fd5b60405162461bcd60e51b815260206004820152600e60248201526d125b9d985b1a59081c195c9a5bd960921b6044820152606490fd5b60405162461bcd60e51b815260206004820152601060248201526f04c616e64206d757374206265203e20360841b6044820152606490fd5b5063ffffffff610140511615156102c2565b60405162461bcd60e51b81526020600482015260166024820152755368617265206d7573742073756d20746f203130302560501b6044820152606490fd5b600080fd5b34610f5357602080600319360112610f53576004358060005260008252610f886013604060002001541515611d8b565b60005260008152604060002080549060018060a01b036001820154169260078201549063ffffffff92600d8101549360ff60118301541694600586101561110d576012830154936013840154956040519081806003880190610fe991611e95565b03610ff49083611f7c565b60405190816110068160048a01611e95565b036110119083611f7c565b60405191826110238160098b01611e95565b0361102e9084611f7c565b604051938461104081600a8c01611e95565b0361104b9086611f7c565b60405180600f819b019061105e91611e95565b03611069908a611f7c565b6040519d8e9d8e6101c0928392825289820152604001528d0161108b91611d4b565b8c810360608e015261109c91611d4b565b9086811660808d0152841c60ff1660a08c01528a810360c08c01526110c091611d4b565b89810360e08b01526110d191611d4b565b9282166101008901521c60ff166101208701528581036101408701526110f691611d4b565b926101608501526101808401526101a08301520390f35b634e487b7160e01b600052602160045260246000fd5b34610f53576020366003190112610f53576004358060005260006020526111536013604060002001541515611d8b565b6000526000602052602060ff601160406000200154166111766040518092611d3e565bf35b34610f53576060366003190112610f5357611191611cfb565b6044356001600160401b038111610f53576111b0903690600401611d11565b919060043560005260006020526111d06013604060002001541515611d8b565b600435600052600060205260406000209060ff601183015416600581101561110d576001036116aa57336001600160a01b038416148015611678575b156116245760028201546001600160a01b0384811691161480801561160b575b156115b657156115905760405161124281611f46565b60078152666661726d65723160c81b6020820152935b60128301549160005b838110611531575061128d906040519261127a84611f2b565b6001600160a01b03871684523691611f9f565b602082019081526040820186905242606083015291600160401b8110156109ed578060016112c49201601286015560128501611dd2565b92909261151b57815183546001600160a01b0319166001600160a01b0391909116178355518051906001600160401b0382116109ed576113148261130b6001870154611e5b565b60018701612022565b602090601f83116001146114a95761133692916000918361149e575050612078565b60018301555b6040810151805160028401916001600160401b0382116109ed5761136a826113648554611e5b565b85612022565b602090601f831160011461141c576011946000805160206120f683398151915297946113a88560ff9996600396606096600092611411575050612078565b90555b015191015542601482015560026012820154146113ff575b015416916113ea6113df60405195604087526040870190611d4b565b936020860190611d3e565b6001600160a01b0316926004359281900390a3005b808201805484191660021790556113c3565b015190508e80610514565b90601f198316918460005260206000209260005b81811061148657509460018560039560609560119a9560ff9c996000805160206120f68339815191529e9b1061146e575b505050811b0190556113ab565b015160001983891b60f8161c191690558d8080611461565b92936020600181928786015181550195019301611430565b015190508880610514565b9190600185016000526020600020906000935b601f1984168510611500576001945083601f198116106114e7575b505050811b01600183015561133c565b015160001960f88460031b161c191690558780806114d7565b818101518355602094850194600190930192909101906114bc565b634e487b7160e01b600052600060045260246000fd5b61153e8160128701611dd2565b50546001600160a01b0387811691161461155a57600101611261565b60405162461bcd60e51b815260206004820152600e60248201526d105b1c9958591e481cda59db995960921b6044820152606490fd5b60405161159c81611f46565b60078152663330b936b2b91960c91b602082015293611258565b60405162461bcd60e51b815260206004820152602760248201527f4661726d6572206973206e6f74206120706172747920746f20746869732061676044820152661c99595b595b9d60ca1b6064820152608490fd5b5060088301546001600160a01b0385811691161461122c565b60405162461bcd60e51b815260206004820152602660248201527f4e6f7420617574686f72697a656420746f207369676e20666f722074686973206044820152653330b936b2b960d11b6064820152608490fd5b50337f00000000000000000000000000000000000000000000000000000000000000006001600160a01b03161461120c565b60405162461bcd60e51b815260206004820152601f60248201527f41677265656d656e74206e6f742070656e64696e67207369676e6174757265006044820152606490fd5b34610f5357602080600319360112610f53576004356001600160a01b03811690819003610f53576000526001906001815260406000209160405191828185549182815201908195600052826000209060005b81811061178f5750505083611757910384611f7c565b60405192818401908285525180915260408401949160005b82811061177c5785870386f35b835187529581019592810192840161176f565b8254845292840192918501918501611741565b34610f53576000366003190112610f53576040517f00000000000000000000000000000000000000000000000000000000000000006001600160a01b03168152602090f35b34610f5357602080600319360112610f535760043580600052600082526118176013604060002001541515611d8b565b6000818152808352604090206002810154336001600160a01b039182161491821561197b575b50811561194f575b501561190a578060005260008252604060002060118101805460ff8116600581101561110d57600281149081156118ff575b50156118ba5760049060ff19161790556014429101557fb3e4d3f78538d12c2af01cd812d88bc3d1f80e420bbf1468ad9c451784b6e1d7604051924284523393a3005b60405162461bcd60e51b815260048101869052601f60248201527f43616e6e6f74207265766f6b6520696e2063757272656e7420737461747573006044820152606490fd5b600191501486611877565b60405162461bcd60e51b815260048101839052601d60248201527f4e6f74206120706172747920746f20746869732061677265656d656e740000006044820152606490fd5b90507f000000000000000000000000000000000000000000000000000000000000000016331483611845565b81925060080154163314908461183d565b34610f53576060366003190112610f53576001600160401b03600435602435828111610f53576119c0903690600401611d11565b604435848111610f53576119d8903690600401611d11565b90611a0d337f00000000000000000000000000000000000000000000000000000000000000006001600160a01b031614611fe5565b8460005260209560008752611a2b6013604060002001541515611d8b565b8560005260008752604060002090600f82018186116109ed57611a5886611a528354611e5b565b83612022565b600086601f8111600114611b915780611a7992600091611b86575b50612078565b90555b601082019084116109ed57611a9584611a528354611e5b565b6000601f8511600114611b0a57916000805160206120d683398151915297989391611acd8680611afa9896600091611aff5750612078565b90555b601442910155611aed60405196879660408852604088019161208b565b928584039086015261208b565b0390a2005b90508501358d611a73565b601f1985169082600052896000209160005b818110611b6f5750916000805160206120d6833981519152999a95939187611afa98969410611b55575b5050600184811b019055611ad0565b840135600019600387901b60f8161c191690558a80611b46565b91928b60018192868a013581550194019201611b1c565b90508901358c611a73565b50601f1987169082600052878b6000209260005b8d8c838310611be05750505010611bc6575b5050600186811b019055611a7c565b880135600019600389901b60f8161c191690558980611bb7565b8501358655600190950194938401938b935001611ba5565b34610f53576040366003190112610f53576024356004356001600160401b038211610f5357611c82611c306020933690600401611d11565b928060005260008552611c4c6013604060002001541515611d8b565b60005260008452611c6d611c74600f60406000200160405192838092611e95565b0382611f7c565b848151910120923691611f9f565b82815191012014604051908152f35b34610f53576000366003190112610f53576020600254604051908152f35b34610f53576040366003190112610f53576020611cf1600435611cd0611cfb565b908060005260008452611cec6013604060002001541515611d8b565b611e04565b6040519015158152f35b602435906001600160a01b0382168203610f5357565b9181601f84011215610f53578235916001600160401b038311610f535760208381860195010111610f5357565b90600582101561110d5752565b919082519283825260005b848110611d77575050826000602080949584010152601f8019910116010190565b602081830181015184830182015201611d56565b15611d9257565b60405162461bcd60e51b81526020600482015260186024820152771059dc99595b595b9d08191bd95cc81b9bdd08195e1a5cdd60421b6044820152606490fd5b8054821015611dee5760005260206000209060021b0190600090565b634e487b7160e01b600052603260045260246000fd5b60005260006020526040600020906012600092018054925b838110611e2c5750505050600090565b611e368183611dd2565b50546001600160a01b03848116911614611e5257600101611e1c565b50505050600190565b90600182811c92168015611e8b575b6020831014611e7557565b634e487b7160e01b600052602260045260246000fd5b91607f1691611e6a565b805460009392611ea482611e5b565b91828252602093600191600181169081600014611f0c5750600114611ecb575b5050505050565b90939495506000929192528360002092846000945b838610611ef857505050500101903880808080611ec4565b805485870183015294019385908201611ee0565b60ff19168685015250505090151560051b010191503880808080611ec4565b608081019081106001600160401b038211176109ed57604052565b604081019081106001600160401b038211176109ed57604052565b602081019081106001600160401b038211176109ed57604052565b601f909101601f19168101906001600160401b038211908210176109ed57604052565b9192916001600160401b0382116109ed5760405191611fc8601f8201601f191660200184611f7c565b829481845281830111610f53578281602093846000960137010152565b15611fec57565b60405162461bcd60e51b815260206004820152600e60248201526d139bdd08185d5d1a1bdc9a5e995960921b6044820152606490fd5b90601f811161203057505050565b6000916000526020600020906020601f850160051c8301941061206e575b601f0160051c01915b82811061206357505050565b818155600101612057565b909250829061204e565b8160011b916000199060031b1c19161790565b908060209392818452848401376000828201840152601f01601f1916010190565b805490600160401b8210156109ed5760018201808255821015611dee576000526020600020015556fe222c31ed55842bcde3c39b49875bae306af952dc94d514593ac61a4ba7ce0e6a58554c3c761c10bedf59a12935e8a806a07a07f9157f8a7a59169f215e22dec3a264697066735822122054c96984881c69a585cff02088dcf7d0496a9dc4e3fab7a458c42b23f3bfc52764736f6c63430008180033",
  "linkReferences": {},
  "deployedLinkReferences": {}
}